:020000040800F2
:10000000105A0020A101000891630008ED52000879
:100010008D6300085B0300081773000800000000F0
:10002000000000000000000000000000FF6B00085E
:10003000890300080000000009680008016C00083E
:10004000BB010008BB010008BB010008BB010008A0
:10005000BB010008BB010008BB010008BB01000890
:10006000BB010008BB010008BB010008BB01000880
:10007000BB010008BB010008BB010008BB01000870
:10008000BB010008BB010008BB010008BB01000860
:10009000BB010008BB010008BB010008BB01000850
:1000A000BB010008BB010008BB010008BB01000840
:1000B000BB0100080000000000000000BB010008B8
:1000C000BB010008BB010008BB010008BB01000820
:1000D000BB010008BB010008BB010008BB01000810
:1000E000BB010008BB010008000000000000000088
:1000F0000000000000000000000000000000000000
:1001000000000000BB01000800000000BB01000867
:100110000000000000000000BB010008BB01000857
:10012000BB010008BB010008BB010008BB010008BF
:10013000BB010008000000000000000000000000FB
:10014000BB010008BB010008BB0100080000000063
:10015000BB010008BB010008BB010008BB0100088F
:10016000BB010008BB010008BB0100080000000043
:10017000BB010008BB0100080000000000000000F7
:10018000BB010008BB010008BB010008DFF80CD070
:1001900000F0A6F800480047D9CF0008105A002008
:1001A0000648804706480047FEE7FEE7FEE7FEE711
:1001B000FEE7FEE7FEE7FEE7FEE7FEE7DD6C000890
:1001C0008D0100082DE9F05F0546002092469B4610
:1001D00088460646814640241BE02846414647465D
:1001E000224600F06DF853465A46C01A914110D38A
:1001F00011461846224600F054F82D1A67EB010804
:100200004F4622460120002100F04BF817EB000971
:100210004E41201EA4F10104DFDC484631462A4647
:10022000434600F000B830BCBDE8C09F10B5431A8B
:10023000934209D28318881803E010F8011D03F8CF
:10024000011D521EF9D210BD40EA01039B0703D0E5
:1002500009E008C9121F08C0042AFAD203E011F805
:10026000013B00F8013B521EF9D210BDD2B201E0B1
:1002700000F8012B491EFBD270470022F6E710B5AB
:1002800013460A4604461946FFF7F0FF204610BD04
:10029000034611F8012B00F8012B002AF9D118466A
:1002A0007047202A04DB203A00FA02F10020704750
:1002B0009140C2F1200320FA03F3194390407047A4
:1002C000202A04DB203A21FA02F00021704721FAAB
:1002D00002F3D040C2F12002914008431946704712
:1002E000064C074D06E0E06840F0010394E8070083
:1002F00098471034AC42F6D3FFF74CFF780601085C
:100300009806010870B58C1810F8015B15F007030A
:1003100001D110F8013B2A1106D110F8012B03E09E
:1003200010F8016B01F8016B5B1EF9D12B0705D4A6
:100330000023521E0DD401F8013BFAE710F8013BEF
:10034000CB1A921C03E013F8015B01F8015B521E0B
:10035000F9D5A142D8D3002070BD00BFFEE7000050
:100360007CB507F0BFFA0546002000902B46044AF2
:1003700002210190034801F0D9FA044620467CBDD1
:100380007DCE000870D0000870472DE9F047044684
:1003900040688EB00027804601F0A4F90090B0F8C4
:1003A0007CA0D0F86890D0F88060D0F88850C06DFC
:1003B00000B10768684601F0DFF905E0696820468A
:1003C0008847002843D12D68002DF7D120681728D1
:1003D00053D00CDC0F283DD004DC0B2877D00D283F
:1003E00025D18BE0112810D0142820D13BE02628FD
:1003F00046D004DC1E2851D0202818D18AE02A28B3
:1004000016D0B0F5107F12D128E04046E56801F023
:1004100069F90290697A39B9297A012904D130F849
:100420007C1F41F48071018002A801F0A5F975E0FC
:10043000404601F057F90090E16811B1C0F884100E
:1004400002E0D0F88400E060684601F095F90EB053
:10045000BDE8F087D7B34046B8475FE02146404645
:100460000BF02AFAF3E705A9404600F05BFBE068D1
:100470000699016007994160E9E7C4F80C90E6E746
:10048000E0680228E3D1CDF83080E0680D902720A5
:100490000A900AA9A06808F073FAD8E7E068012872
:1004A00004D00021404600F0ADFAD0E7304607F016
:1004B000C0FB68B1304607F043FD304607F09EFAB6
:1004C00098B10121304606F0B8FF0EE026E02FE09B
:1004D000484607F083FD0646404601F003F90090C8
:1004E000C0F88060684601F047F90121404600F0FD
:1004F00089FA002EABD10020E060A8E75FEA0A701D
:100500000CD4E068C06848B1007A38B1404607F0C2
:1005100017FD03E0214640460BF036F921464046E0
:1005200006F0FBFE002892D0204607F0C7F88EE7C1
:10053000404601F0D7F80090703001F045F8684669
:1005400073E7F0B587B0B0F908400DF10C0C0C9EC4
:10055000876945688CE8F000448A0025CDE90015DC
:100560000294B0F90C10B0F91050B0F90E40B0F987
:100570000A00194410442B46224600F003F807B045
:10058000F0BD00002DE9F0478AB00DF14C0CDDE91B
:1005900017849CE86006129F45F48055DFF8BCC0C4
:1005A0006034CDE902C4CDE9007506F0D5FF040042
:1005B0004FD001F097F830224946049006F07AFFB8
:1005C0000498282226493430FFF730FE0498244F3F
:1005D000C0F86480A0F87C600026C0F88060C66621
:1005E000083FC0F888607968C16504A801F0C4F8C4
:1005F00005A9204600F096FA1A4841F28271039646
:100600000094CDE90110BDF91E00BDF91A10BDF925
:100610001C20431ABDF918005B1C121A521C06F06C
:100620009BFF06467868416820468847204601F0CF
:1006300059F80490866604A801F09EF842F204007E
:10064000054202D1204607F0E1F85146204600F06D
:100650000EFA0AB02046BDE8F08700008B030008C0
:10066000A4000020370E00082DE9F041044694B0A4
:10067000006800F0B7F908B1D94D01E0D84D2C352C
:10068000606815281ED00CDC0B281FD004DC002865
:100690007ED005287DD12FE10E287BD01228F9D1FC
:1006A00041E1162806D0172808D0182808D01C28A1
:1006B000F0D109E0E86914B0BDE8F081286AFAE7F2
:1006C000686AF8E7A86AF6E76869F4E720680B90BB
:1006D0001C200C90206801F005F80390016D0BA818
:1006E0008847064603A801F047F8022E0FDB95E87D
:1006F00007008DE80700D4E904023346A16902F03F
:10070000A5FF20698719A069A0EB06082CE02868DE
:1007100002F036FA2169E8690A18521E606901F090
:100720003BFBA269E869111A491C606901F034FBBE
:10073000D4E904077F1C394601F054FB3946A0690F
:1007400001F050FB686802F01BFA20693946401C32
:1007500001F048FBA0693946401E01F043FBA06947
:100760002769A0F10208BF1C286802F009FA424676
:100770003946606901F010FB686802F001FA6069AF
:1007800042463946401C01F007FB686A022802E035
:1007900015E1B0E000E10BDDA86802F0F1F9616954
:1007A0006A6A881C8B180146424638465B1E27E061
:1007B000296AB14226DD6069022E074600F102086F
:1007C00001DB374401E007F10207206901DB304417
:1007D00001E000F1020022693B460A444146A2F1D1
:1007E000010201F09FFB022E02DBA069821B01E0E7
:1007F000A269921EA069E9693B46401A4146401C25
:1008000001F090FB022E02DB6069064401E066699C
:10081000B61CE76928687F1E02F0B2F93A463146F5
:10082000206901F03DFB3A463146A06901F038FBF2
:10083000E7696868BF1E02F0A3F920693A463146AD
:10084000401C01F02DFBA0693A463146401E01F0E4
:1008500027FBE869022802DC286A022823DDA86A4F
:10086000022802DDE1690F1A01E0E769BF1EA868EE
:1008700002F086F9E969022909DD20693B46421840
:1008800000F1020C31466046521E01F04BFB286A13
:10089000022808DDA269E8693B46101A3146401C6F
:1008A000921E01F03FFB286802F06AF9D4E90620A5
:1008B000216901F071FA686802F062F9D4E9062052
:1008C0002169401E491C521E01F066FAA86A0228DE
:1008D00011DDA1692669E469A1F10208271AA41EA5
:1008E000B61C7F1CA86802F04BF9234642463946E5
:1008F000304601F017FB71E0208A00B2ADF8140019
:10090000A18A09B2ADF81610228B12B2ADF81820E8
:10091000A38B1BB2ADF81A302C69ED68CDE90054F9
:1009200001F002FA5AE0208A298B0844ADF814003D
:10093000A08AADF81600208B298B401AADF818005C
:10094000A08BADF81A00206800F0CCFE0390006F79
:10095000F0B1022002F05EF9039890F87C10C1F328
:10096000C00100EB8100006C02F00AF90398406BB3
:1009700002F010F90398006F00F0B4FE039909909B
:10098000B1F95A2005A901F071F909A800F0F4FEA7
:1009900003A800F0F1FE21E0208AADF81400A08A3F
:1009A000ADF81600208BADF81800A08BADF81A003A
:1009B000A86802F0E5F805A801F0D8FA0EE0206872
:1009C00000F090FE039030F85A1F41F00C010180B6
:1009D00003A800F0D1FE206807F028FB00206AE69B
:1009E000E001002038B5002450B100F07BFE0090FB
:1009F00090F87C00000700D50124684600F0BCFE9A
:100A0000204638BD002801D00BF0DBBA70472DE935
:100A1000FC410D46070028D000F064FE0190C16D36
:100A20008C6800F0E9F880460198456301A800F061
:100A3000A3FE22680121384690470646226803211A
:100A400038469047054622680021384690470446BC
:100A5000384600F0B9F92B463246414638460094F4
:100A600000F03FF9384607F086F8BDE8FC817CB518
:100A70000D46040019D000F035FE0090006F019083
:100A8000684600F079FE294601A803F0B7F800286F
:100A90000BD0204600F026FE0090019901676846C1
:100AA00000F06AFE204607F066F87CBD2DE9FC47A1
:100AB0000D465FEA00094FF000042DD000F012FE51
:100AC0000190B0F95440A54223D000F095F880463B
:100AD00001980121A0F85450C06D856848462A68E5
:100AE000904707462A6803214846904706462A68E9
:100AF0000021484690470546484600F065F93346D0
:100B00003A4641464846009500F0EBF8484607F063
:100B100032F801A800F030FE204600F000B80CBC0E
:100B2000BDE8F0872DE9F34F85B000270C46B846A5
:100B3000059800F0D7FD0090C06D012185680598EB
:100B40002A68904782462A680321059890470490B6
:100B50002A6802210598904703902A680021059889
:100B600090470646009807F005FC8346009807F07A
:100B700008FC8146009890F83210890601D5B0F93A
:100B8000588000F039F805460098C06E10B106F0A4
:100B900013FF074625806780A4F804A0049AABEBF6
:100BA000020006EB0802401E2A4420813A44E280FB
:100BB000039BA9EB0302521E6281A4F80CA02082C1
:100BC0007019E681401E6082684600F0D5FDB4F9D8
:100BD0000C000190B4F91000029002AA01A9059836
:100BE00000F03CF80198A0810298208207B000F044
:100BF00000B830BCBDE8C08F10B50146002091F8A8
:100C00003220920607D5B1F95400002803D1486B71
:100C100001F012FA801C10BD70B58AB00C46054672
:100C200000F060FD0990C06D866809A800F0A4FD81
:100C3000009534B1012C06D0022C0BD0032C04D12A
:100C40000AE0182000E01620019071686846884785
:100C50000AB070BD1520F7E71720F5E72DE9FC4134
:100C600017468846044600F03DFD0090C16D0568BA
:100C700068468E6800F080FD32680021204690476B
:100C80000646204606F042FE27E000BF00F02AFD9F
:100C90000190B0F900102AB2B0F90430891A9A1AFA
:100CA000B0F90230A3EB2543B34210D190F82800ED
:100CB000000605D53868884209DB491E396006E020
:100CC000D8F80000904202DC521CC8F8002001A8AD
:100CD00000F052FD204606F038FE0400D6D1BDE8F3
:100CE000FC812DE9FF4F83B00E460746DDF84090AA
:100CF00000F0F8FC0190C16D8D68FFF77DFF0446A0
:100D000001A800F039FD2A68012138469047834642
:100D10002A6803213846904782462A6800213846CF
:100D200090470546B44207D105998B4504D10699F1
:100D30008A4501D14D4541D0A41B0026B046384616
:100D400006F0E4FD38E000F0CDFC0090806A01067A
:100D500001D5800502E0810528D50006002825DBA5
:100D600024B122461146384606F0C4FF009890F898
:100D7000280000060AD50698A5EB0902A0EB0A0098
:100D800004FB16013846761C06F08DFF0098008D96
:100D900080050BD50599A5EB0902ABEB010004FB1F
:100DA000080108F10108384606F07DFF684600F0AA
:100DB000E3FC384606F0C9FD0700C4D107B000F0D7
:100DC00000B830BCBDE8C08F70B586B0064600F0F4
:100DD00089FC0590D0E91A4505A800F0CDFC54EA3D
:100DE000050026D069463046FFF79CFEACB1BDF940
:100DF0000620BDF90410204606F02CFFBDF90A00BC
:100E0000BDF90610421ABDF90800BDF90410521CC4
:100E1000411A2046491C07F029F9002D09D0BDF9D7
:100E20000600BDF90210421ABDF90410284606F06A
:100E300011FF06B070BD2DE9F0430446406889B04B
:100E4000054606F089FD814600F04CFC0290D0F882
:100E50004880D0F88070466E02A800F08DFC2068B3
:100E6000172853D008DC0E283AD00F2811D01428A8
:100E70004CD015283DD149E01E281ED01F282AD06D
:100E8000222840D0312834D10020E06009B0BDE8EC
:100E9000F0836FF070414046884503D004F04CFF6A
:100EA00000F006FD002EF1D0D4E902122068CDE951
:100EB0000405CDE9061204A81FE0E0680028E5D08B
:100EC0002FB1AF4203D0384607F03AF8DEE72846A4
:100ED00007F084F8DAE72146484606F01EFAD5E71F
:100EE000E0684168002904DD00680928EFD00A287D
:100EF00005D05EB12046C4F80490B047C6E7284646
:100F000007F074F8C2E7C4F80C80BFE7204606F08B
:100F1000D5FBBBE710B5002001F030FE6FF07F403D
:100F200001F02EFE012001F063FE002001F068FEBA
:100F3000002001F06FFE002001F02AFE0448006846
:100F400001F028FEBDE81040002001F02DBE000099
:100F50002800002070B50C46054600F0FFF8A86890
:100F60002168C16261680163A1684163490707D5CF
:100F7000D0E90021C0E90012D0E90221C0E9021243
:100F8000A18981842169002903D001DC4FF000018F
:100F9000016270BD2DE9F0411E46174688460546A0
:100FA00000F0DCF8AC686822414604F58670FFF773
:100FB0003DF92846B8472846B047286980688047E9
:100FC000A062BDE8F081000010B5044600F0C6F84C
:100FD000A0681149144AC0F8AC101049C0F8A81014
:100FE0000F49C0F8B0100F49C0F8B8100021C0F880
:100FF000BC101368C0F8B4300C4BC0E932315168F2
:10100000C0F8C41030F8261F21F0030120F82A1B75
:101010000749416410BD000025C200086DC30008E7
:10102000EDC1000873BD00089400002043BE000815
:1010300095C1000810B5044600F090F8A468104867
:101040000821C4F8E4000F48C4F8E8000E48C4F8CA
:10105000EC000E48C4F8F0000D48C4F8A0000D489C
:10106000C4F8A400D4F8C800C4F8FC00D4F8942054
:10107000204690471020A0630748606410BD000020
:10108000F59D000899AA00089D100008CD110008E0
:101090002DBD0008ADC5000808FC0008F8B584683F
:1010A00015460F4694F8260080074CD5D4F8003139
:1010B000204698470646D4F804312A463946204649
:1010C0009847D4F8983005461BB1002201212046EC
:1010D00098472069B04201DD012000E00020A169AD
:1010E000B14201DA012100E0002108436169A9420F
:1010F00001DD012100E000210843E169A94201DA94
:10110000012100E0002108430AD060680022401E4F
:1011100000902368D4F8A870114620465B1EB8479B
:10112000D4F8AC302A46314620469847D4F8A0106F
:1011300020468847D4F8983005466BB1012200213B
:101140002046984708E0D4F8AC3020469847D4F8B9
:10115000A0102046884705462846F8BD70B50446CD
:101160008068002812D14FF4BA75284600F034FA8E
:101170002A460021A06002F077FDA0680221C18408
:101180000121046401620249C0F8081170BD000029
:101190009511000810B590B0044620220A4968460F
:1011A000FFF744F808492022203108A8FFF73EF84D
:1011B000606B5DF82010C4F8001108A951F82000F8
:1011C000C4F8040110B010BDFCD000082DE9F843AC
:1011D00084689846154694F826000F46800740D547
:1011E000D4F80031204698470646D4F804312A4600
:1011F00039462046984705462069B04201DD012066
:1012000000E00020A169B14201DA012100E00021E3
:1012100008436169A94201DD012100E00021084382
:10122000E169A94201DA012100E0002108430AD066
:1012300060680022401E00902368D4F8A870114610
:1012400020465B1EB847D4F8AC302A4631462046CB
:101250009847D4F8A42001B041462046BDE8F043A9
:101260001047D4F8AC30F2E72DE9F04FDFF828B1A1
:1012700091B04FF0FF35DBF80030B3F92210069142
:10128000DE69B3F92490F469A189814206D8E28924
:10129000824203D3471AD4F8008012E0D4E90181D6
:1012A00000296FD00A8882426CD84D88854269D364
:1012B000801A82B2486800EB8200B0F90070B0F981
:1012C0000250781C5ED0307EA17C10FB01FA217C9C
:1012D000CDE90701B3F92A60304604F07DFDC0B2C4
:1012E0000E90DBF8000007FB0A81A37C826B0127CC
:1012F000CDE90412CDE90273C069089AC17E807EEF
:10130000CDE90001DDE90603494604F069F8681CEF
:1013100018D046F0020004F05FFDDBF80000A37C6B
:1013200005FB0A81826BCDE90273CDE90412C06925
:10133000089AC17E807ECDE90001DDE906034946B9
:1013400004F04EF8DBF800005D46C069417E007E87
:10135000814214D9022E12D086F0040004F03CFD24
:101360002868C069027EC37E12FB0391437E857E9E
:10137000089A06984B4412FB050204F0C1F90E9836
:1013800004F02AFDDBF80000627C418C11444184AA
:1013900011B000F003B800002C00002030BCBDE804
:1013A000C08F000004480068C069C06909B1027CB0
:1013B0000A60407C704700002C000020022008805A
:1013C0007047C06982898A4202D8C2898A4210D293
:1013D000806880B102888A420DD843888B420AD344
:1013E000406800EB8100A0EB8200B0F9000000280B
:1013F00001DB012070470020704700002DE9F04319
:10140000304C034687B020681946B0F92A60C0699D
:10141000C06900F086F8002850D041680088181A8A
:1014200001EBC0053046AF7804F0D6FC8146206859
:101430006A680123816BCDE90237CDE90421C169D6
:10144000CB7E8A7ECDE900230B7EB0F924102A786A
:10145000B0F9220003F0C4FF2068C069417E027E1B
:1014600091421FD9C07E11FB00F812FB00F7022E3B
:1014700018D000F0ACFD064600F08CFD01F080FBBA
:1014800021682A78CB69B1F92200DB7E12FB0302C6
:10149000B1F9241001EB0803394404F031F9304666
:1014A00001F06EFB484604F097FC20686A78C36937
:1014B000B0F922109B7E12FB0311418407B0BDE8F6
:1014C000F08300002C00002030B50F4C05460B4681
:1014D00020682946C069C06900F023F8002812D0AE
:1014E0004168008824682A1A0120E46900EBC200E0
:1014F000085CA47E10FB04F0002B04D011F832101D
:1015000011FB04F1196030BD2C000020012008807F
:10151000704700B5C06900F004F8002800D0012031
:1015200000BD06E002888A4202D842888A4202D27E
:1015300080680028F6D17047002801D007F012BB60
:10154000704738B50546FFF7F7FF040009D000F0F3
:10155000C9F82A460021009002F086FB684600F098
:101560000BF9204638BD0000024A106021F003004C
:1015700050607047DC48002010B5002814D00446A5
:101580000A48406B10F8341000290DD002290BD204
:10159000042101EBC4014158486807F09BFA20463A
:1015A000BDE810400AF0AEBB10BD00001C48002092
:1015B000002805D0034AD16B016001B14860D063B7
:1015C000704700001C48002010B504460068FFF773
:1015D000D3FF0020206010BD2DE9F041044609F042
:1015E000D3FF2848E41C24F00305016C2D1DA942FB
:1015F00000D90D46C46B13E054F8042CAA420ED156
:1016000084B1216809B162684A60616809B12268E1
:101610000A60C26BA24231D12168C1632EE0246806
:10162000002CE9D18046816BC0680F1857F8040C74
:101630003E1A306838B100200AF070FC57F8040CEC
:101640003E1A3068D0B97068A84217DB3044441B9A
:101650003046241D0AF01AFCD8F80C10491BC8F8B3
:101660000C10D8F814102944C8F814107068401BE6
:1016700002D0314607F02EFA44F8045C2046BDE85B
:10168000F08100001C48002010B5002409F07CFF08
:101690000C490F2001EBC002526C1AB101EBC000E3
:1016A000406C08E0401EF5D508E04168A14200D931
:1016B0000C46806810B180680028F6D1A4F10C00B7
:1016C00010BD00001C480020002138B1044904224C
:1016D00002EBC000496B085841680C390846704756
:1016E0001C4800200549CA69521CCA61496B01EBBC
:1016F000C0010A78521C0A7000F056B81C4800203D
:101700007CB506460C460846FFF716FF05001CD0C0
:10171000DEB13046FFF7D8FFA04200DA0446284683
:10172000FFF7E0FF00903046FFF7DCFF0146019035
:1017300022460098FEF77AFD684600F01DF801A8E1
:1017400000F01AF83046FFF717FF28467CBD00006E
:1017500010B5FFF799FF64220649B0F5800F04D950
:1017600090FBF2F0096A484310BD096A4143B1FB9E
:10177000F2F010BD1C4800200A4902684B6B52F879
:10178000082C03EBC2021378022B03D3CB690BB1F5
:101790005B1ECB611178491E117000210160084663
:1017A000704700001C480020002806D0034904228E
:1017B00002EBC000496B0858083070471C480020F5
:1017C00070B50C46054600F099FCC1B22346284688
:1017D000BDE87040002200F001B80000F0B52D27F0
:1017E0001C68B0F1004F08D0002600280DDA651CF7
:1017F0001D6027704042012408E0651C01261D6021
:101800006FF000402770491E01E00024091BC9B297
:101810002AB3491EC9B222E00C46491EC9B29442FD
:1018200005D1124C27781C68651C1D602770104C70
:1018300054F8215090FBF5F4E4B20A2C11D804FBC3
:10184000150011B90EB1641CE4B20A2C02D10124B6
:10185000491CC9B21D686F1C30341F602C700029F0
:10186000DAD1196800200870F0BD000020000020C7
:101870005CFC000810B5C2B2CBB2D21A00D55242FD
:1018800093B25B43C0F30722C1F30724121B00D5B8
:101890005242000C92B2A0EB114002FB023200B2A5
:1018A000002801DA404200B280B200FB002010BDE7
:1018B00010B50021084600F0D5FB43F6FF725042F8
:1018C000BDE8104013460146AFF300802DE9FC410E
:1018D00007461C4615460E46042004F07DFA804655
:1018E0001148C068C16C006D0F4406440D440444A7
:1018F000ADF80070ADF80450ADF80260ADF80640E8
:10190000684606F045FD07E023462A46314638463C
:1019100003F0F6FE06F0F0FC0028F5D1404604F096
:101920005BFABDE8FC810000200000202DE9F843AF
:101930001C00DDE9089816460F46054602D105F061
:10194000D1FF044600962E6843464A462146284663
:10195000B047061E35D005F0B9FF8146698A30468A
:1019600005F06BFD304606F0ADFB484606F0AAFBDD
:101970004FF000080CE000BFCDF8008055F81CCFF8
:1019800000231A4649462846E047E0B106F09AFB94
:101990007F1E002FF0DC1D21484606F044FA601C33
:1019A0000ED005F0BBFF30B1FFF7FEFE8469B442F4
:1019B00001D02000F8D1B44202D0304606F00EFB30
:1019C0003046BDE8F883304605F0ACFE0020F8E76D
:1019D0002DE9F0411C4616460D460746022B02DB58
:1019E0000020BDE8F0811C20FFF7F6FD0028F8D0AC
:1019F0000DB105610AE0094A52F8241009B905E061
:101A000011460A68002AFBD1096901618461868256
:101A1000002101604160C0E90217E2E744000020B4
:101A200070B51D46FFF7D4FF040009D000F00EF892
:101A3000E068006820B90348006800EB8500846511
:101A4000204670BD2C000020FFF7B2BD70B590B3EA
:101A50008269022A30DA1E4C54F8221019B944F86F
:101A6000220032E019464B68002BFBD106E0CB6820
:101A7000C5681B682D68AB4203DD09680029F6D1F3
:101A80001AE0C1B1CB68C6681B683668B3420CD196
:101A9000838A012B05D008E01946DB681B68AB423E
:101AA00003DB0B68002BF7D129B14B6833B1186009
:101AB0004A68426004E0FFE7012070BD44F822005C
:101AC0004860884200D100210160002070BD000004
:101AD000440000200A4A816952F82130834202D131
:101AE000036842F82130416809B102680A60016860
:101AF00009B142684A6000210160416070470000FE
:101B000044000020022801DB00207047054951F8FD
:101B1000200004E0C16809680029F6D000680028A8
:101B2000F8D170474400002070B5044601F01AFA5D
:101B3000051908E000F0D4F9052C01DD052000E0CE
:101B4000204601F001FA01F00DFA2C1A002CF1DC0C
:101B500070BD00002DE9FC4706005BD000F03EFAA6
:101B60003B4C81462068B0F9228000F04DFA216894
:101B700007468A8CD01B888441E000BF47F6FF717E
:101B8000304601F0C1FE82460146304601F092FE29
:101B90002168054691F82C0000F0030001283FD091
:101BA000022839D000204A8C101A4884ADF8000071
:101BB0006A1E1044ADF80400888CADF80200A9F14B
:101BC00001010844ADF806006A465146304601F06E
:101BD00053FB2168BDF8020088845146304601F06D
:101BE0009BF8064430780A281CD00D281AD0BDF87E
:101BF0000000216828444884307818B1761C307879
:101C00000028BBD12068818C39448184818D21F0EA
:101C10000301818500F01EB805EBD5704010C2E7C6
:101C20002846C0E7206890F82C1001F00301012934
:101C30000BD0022909D0018C418431780A29DBD1EB
:101C4000828C02EB09018184D6E7A0F82280F4E7B8
:101C50002C0000200CBCBDE8F0870000024B1B6884
:101C600059849A84FFF776BF2C00002047F6FF7353
:101C7000AFF300802DE9FC411F46904606000D465B
:101C80004FF0000416D065B1084606F00FFA0400C4
:101C900007D002462946684601F0A3FE684606F0D2
:101CA00005FA3B4642462946304601F03DFB2046B8
:101CB00006F0FCF9BDE8FC812DE9F04F0C46164911
:101CC00087B00D68DDE91098E96C0F18286D8D1844
:101CD0000619C418ADF81070ADF81450ADF81260C4
:101CE000ADF8164004A806F053FB002811D0DFF829
:101CF0002CB04FF0000ACDE90098CDE902BA2B468E
:101D000022463946304608F0C5FB06F0F5FA0028B1
:101D1000F1D107B000F004B82C000020AD56000847
:101D200030BCBDE8C08F00002DE9F04F164C87B0E5
:101D30002568DDE91098EC6C2718286DA518461861
:101D4000C418ADF81070ADF81450ADF81260ADF8CD
:101D5000164004A806F01CFB002811D0DFF82CB0B8
:101D60004FF0010ACDE90098CDE902BA23462A4690
:101D70003146384608F08EFB06F0BEFA0028F1D155
:101D800007B000F005B800002C000020ED55000859
:101D900030BCBDE8C08F00002DE9FC41104F044667
:101DA0003B68D86C4518196DADF800500E198418B1
:101DB000ADF80440ADF80260ADF80660684606F084
:101DC000E7FA08E0386822463146406E0368284644
:101DD000984706F091FA0028F4D1BDE8FC81000094
:101DE0002C0000207CB50E4D2A68D36C1E18106D97
:101DF000ADF804604418ADF80060ADF80640ADF8E9
:101E00000240684606F0C4FA07E028682146406EA2
:101E100042683046904706F06FFA0028F5D17CBD45
:101E20002C0000202DE9FC411C4C2468E66C94F841
:101E300018C03718206DACF1010C4518C418A7EB79
:101E40000C001644ADF8000006EB0C00ADF80400E1
:101E5000A5EB0C00ADF8020004EB0C00ADF8060099
:101E6000684606F095FA15E032462946384603F0F2
:101E7000BDFB32462146384603F0B8FB621E691CA2
:101E8000384603F013FC621E691C304603F00EFC5A
:101E900006F032FA0028E7D1BDE8FC812C000020D2
:101EA0007CB50E4B1B68DC6C2618186DADF8006015
:101EB00045188418ADF80460ADF80250ADF806403E
:101EC000684606F065FA06E022462946304603F0E9
:101ED000EDFB06F011FA0028F6D17CBD2C000020A5
:101EE00010B5002400E0012400F004F80028FAD125
:101EF000204610BD094810B50068002410B1804785
:101F000000B1012405F08EFC00B1012404480068F2
:101F100010B1804700B10124204610BD50000020C0
:101F20004C0000202DE9FC410F4C2568EC6C271873
:101F3000286DA5184618C418ADF80070ADF8045007
:101F4000ADF80260ADF80640684606F021FA07E0F9
:101F500023462A463146384603F0D2FB06F0CCF938
:101F60000028F5D1BDE8FC812C000020B0F9063036
:101F7000B0F90420B0F90210B0F90000FFF7D2BFA9
:101F8000034951F82000C1688A6A082110470000FF
:101F90004400002010B503F0E3FBBDE8104003F05F
:101FA00073BC000002490968C9694A6800211047EA
:101FB0002C000020024A1268D269526810470000C3
:101FC0002C000020002801D005F070BC704710B52F
:101FD00003F0CEFBBDE8104003F056BC0248006899
:101FE000C069407E704700002C00002001F058BC02
:101FF00001F0B4BC10B5044601F0A2FC0146204635
:10200000BDE8104001F056BC0A490020096891F86B
:102010002C2002F00C02042A07D0082A01D00C2A36
:1020200002D1C869007E40087047C869007E401E22
:10203000704700002C000020017EC07E11FB00F0E4
:1020400070470000024951F820000069006870479D
:1020500044000020024951F82000006940687047A0
:102060004400002070B50D4609F0F0F904462846FA
:1020700009F0F4F9204370BD2DE9F04119480168D9
:1020800021F00101016018480125856017490160B0
:1020900000681749884200D0FEE701F01FF8154E8E
:1020A0002E20307000F064FF134809F035FA0AF072
:1020B0004DFF074603F0A2FB10B103F0B3FB38B9A4
:1020C00003F0B9FB044603F0A2FB214603F07EFEB9
:1020D0000021084600F070FD05F0A0FC7570384640
:1020E000BDE8F081002000E000300240C2A507F406
:1020F000CDB5E8B520000020E848002010B5011E4D
:1021000001DD024600E04A42064B012053F8204020
:10211000944202D8401C0A28F8DB002900DA401C4F
:1021200010BD00005CFC00081CB520B90C4800681C
:10213000006E002812D0FFF7D5FA00904469684677
:10214000FFF71AFB002C09D02046FFF7CBFA0190CD
:1021500081688968884701A8FFF70EFB1CBD000055
:102160002C00002001490A4600F002B801F0FFFFF0
:102170002DE9F04387B015460C465FEA000842D0CF
:10218000002000F005FD814620480068066E4046AC
:10219000FFF7A8FA00900068806900F0D7FC0746B6
:1021A00040F6FF70C44204D10098B0F90440B0F981
:1021B00006500098611E0289ADF804401144ADF844
:1021C00008104189681E0844ADF80650ADF80A00B1
:1021D00005F078F96846FFF7CFFA01A806F0D8F8BD
:1021E00006E02A462146404600F05BFB06F084F8F4
:1021F0000028F6D1384600F0A9FC304600F06CF912
:10220000484600F0C5FC07B0BDE8F0832C00002074
:102210002DE9FE4F83461A488A461A4900680C9EEB
:102220009846407C9146002751F82040E1680968B3
:10223000042903D02468002CF8D100E01CB9FFF772
:1022400061FC041E19D0E0680121C26A2046904753
:10225000050011D02469A0688047401C02D10A4CB7
:1022600046F001060096CDE9015443464A465146E0
:10227000584600F0B5F90746384600F007B80000A8
:102280002C000020440000209CFC00081EBCBDE87F
:10229000E08F000038B5040018D00D480068006ECB
:1022A000A04201D100F048FC2046FFF71BFA009045
:1022B000406908B100F027FE00980068FFF7C4FBF2
:1022C0006846FFF759FA2046FFF756F938BD000077
:1022D0002C0000202DE9FF4FDFF83891074683B02E
:1022E000D9F800009A468B46447C4B480057012899
:1022F000204606DD03F088FA0546204603F098FAEA
:1023000005E003F069FA0546204603F06BFA04463F
:102310001FB302A901A8FFF76BFEB7F90000002860
:1023200000DA0020B7F902608046002E00DA0026AD
:1023300001984119B7F90400491E09F0EAF9054668
:1023400002980119B7F90600491E09F0E2F9A5EB58
:102350000802841B521C641C03E04FF00008464630
:102360002A46BAF1000F01D1C4F1000A002A4FDD5C
:10237000002C4DDD10980090534631464046FFF743
:1023800047FF5FEA000A10D000F06CF80746A04251
:1023900006D0D9F80000806C10B1322106F00EFB97
:1023A000504600F099F8002521E0594605988847E5
:1023B000012007B000F034B8611BB94202DA504680
:1023C00000F074F83DB172194146504600F0A6F88D
:1023D0005046FFF7A9FE5946059888470F480168FF
:1023E00009B1002088475046FFF7BCFE3D44A54296
:1023F000E2DB5046FFF74EFF002000F06DF8A742E9
:1024000006D0D9F80000806C10B1332106F0D6FA5E
:102410000020CEE72C00002064000020C401002032
:1024200030BCBDE8C08F38B5002460B1FFF75AF961
:102430000090006800698068804703F0A0FE0446B1
:102440006846FFF799F9204638BD38B5002808D00E
:10245000FFF748F900F1180400906846FFF78CF97F
:10246000204638BD38B5002418B907480068006E0A
:1024700038B1FFF737F90090B0F90A406846FFF726
:102480007BF9204638BD00002C00002070B50546C1
:102490000024284606F0E0FC641C18B1BDE870403A
:1024A00000F068B8052CF4DB70BD000038B50C46B0
:1024B00020B908480068006E00280AD0FFF712F91A
:1024C0000090B0F90A10A14200DD44816846FFF790
:1024D00053F938BD2C000020F8B50F4E05003068C8
:1024E000046E16D00CB100F027FB05F0DDF828468D
:1024F000FFF7F8F8009031680D660068FFF7A6FA5C
:102500006846FFF739F903F0AFFC03F03FFC2046C3
:10251000F8BD00F011FBFAE72C0000207CB5154651
:102520000C4620B912480068006E00281FD0FFF743
:10253000D9F82DB20090C58024B2848003F026FC27
:102540000098406980B1FFF7CDF8009A0190B2F988
:1025500008108180B2F90A20C28011B10AB104804A
:10256000458001A8FFF708F96846FFF705F97CBD2B
:102570002C00002001490A4600F002B801F0FFFFDC
:102580007FB515460C46060028D0FFF7ABF840F69D
:10259000FF710190CC4203D1B0F90440B0F906506C
:1025A0000289611E1144ADF80840ADF80C10418954
:1025B000681E0844ADF80E00ADF80A5001A8FFF7F8
:1025C000DBF802A805F0E4FE06E02A462146304684
:1025D00000F04FF905F090FE0028F6D17FBD000015
:1025E0002DE9FF4FDFF8E8B083B01C46DBF80010A0
:1025F000DDE9106092464FF000084B7C424612998C
:10260000FFF7E6F9050060D028698068804703F08D
:10261000B6FD81460AFB09F1C91DCF08FFF798F8FE
:10262000F10705D1C11700EB9170801000EB40005D
:10263000002C09DC1FB11838B0FBF7F000E00020D7
:102640006442A04200DC0446F00707D10090DDE9B7
:1026500003012346524600F0DFFB8046002C03DCDA
:102660002846FFF7F1F930E004FB07F01830F107D6
:1026700002D0FEF761FF01E0FEF763FF06001CD009
:10268000FFF730F801900560039981800499C180BB
:10269000A0F808A04481C0F81480C0E9037901A81B
:1026A000FFF76AF81298AE602861DBF80000407C02
:1026B000A861304607B000F00DB82846FFF7C4F90E
:1026C000B8F1000001D0FEF757FF0020F2E700004C
:1026D0002C00002030BCBDE8C08F00002DE9F74F72
:1026E0008EB0144689460E98FEF7FCFF0990B0F9AB
:1026F00008B0B0F90A600068006940680C9009A849
:10270000FFF73AF8564D574F2868407C57F820009D
:10271000C1688A6A082190470790182801D32020B1
:1027200007902868407C57F820000069069003C88D
:102730000B904D48814201D0012000E000200A901A
:10274000002000F016FC00287DD1286809EB0B0161
:10275000B0F90C20891A491E002902DDABEB0105F6
:1027600000E05D46B0F90810494505DDA1EB09011F
:1027700089446D1A089101E000210891002D6BDD5C
:10278000B0F90E20A119891A491E002902DDA6EB15
:10279000010800E0B046B0F90A00A04204DD061BC3
:1027A0003444A8EB060800E00026B8F1000F53DD22
:1027B000089801900DA95F46DDF830A00E980091B1
:1027C000FFF743FE774300EB870101982B4601EBAF
:1027D000800200994846CDE900A1214600F04AFE5A
:1027E0000090002838D00A98E8B1DDE90632294681
:1027F000009800F06DFCB0B90698009FDA46D0F85A
:1028000010C0BCF1000F05D004235A4639463846A3
:10281000E04708E00B993868884701C7AAF1010032
:102820005FEA000AF6D100990020079ACDE903017A
:10283000059001200090CDE9010221460346641C69
:102840002A46484600E007E002F0CAFDA8F1010070
:10285000761C5FEA0008ABD111B000F007B80000A9
:102860002C00002044000020A758000830BCBDE820
:10287000C08FF8B515460E460746FEF733FF0090A9
:1028800000681621C068426A0020904704466846E6
:10289000FEF772FF002C03D02A4631463846A04787
:1028A000F8BDF8B516460F46050012D0FEF71AFF20
:1028B000009044696846FEF75FFF2846FFF7B3FDC6
:1028C0000346082800DD2CB132463946284609F077
:1028D000A7FEF8BD3246394628460AF045F8F8BD4D
:1028E00002480068407C00F003B800002C00002083
:1028F000F8B51D49096809B1002200E002461B49EC
:102900008D56012D2EDD1849143151F822305B1CF3
:1029100041F82230012B25D1A1F1080300261039FE
:1029200053F8224051F8221053F822707F1C43F8CC
:102930002270AF4201D143F8226053F822708F42D7
:10294000F2D03D46FFF7DEF8009000280AD0C068BC
:102950002121426A68469047030003D02A46214657
:1029600000989847F8BD000068010020640000202E
:1029700002480068407C00F003B800002C000020F2
:1029800038B51449096809B1002200E0024612492D
:10299000895601291CDD0F49143151F822305B1E84
:1029A00041F8223014D1083951F82240103141F851
:1029B0002240FFF7A7F80090002809D0C068222124
:1029C000426A68469047020002D02146009890472C
:1029D00038BD0000680100206400002010B5002808
:1029E00021D009B30AB3B1F90040B2F900309C42DA
:1029F00000DA23460380B1F90240B2F902309C426A
:102A000000DA23464380B1F90440B2F904309C4215
:102A100000DD23468380B1F90610B2F90620914209
:102A200000DC1146C18010BD11460A680260496889
:102A3000416010BD00280BD003880B4403808388BD
:102A400019448180418811444180C1881144C1806A
:102A50007047000070B5094C0020D4E900218A427B
:102A60000AD0D2E90056104608F00EFD206031462B
:102A7000284605F023F9012070BD00008C010020DC
:102A80002DE9FC41154DDDE908742D68B5F90860A4
:102A9000864200DD3046B5F90C60964200DA3246D7
:102AA000824219DBB5F90A608E4200DD3146B5F984
:102AB0000E509D4200DA2B468B420DDB00E02C4687
:102AC000E5682D6825B1042D02D02568002DF6D1CA
:102AD000CDE9007403F038F8BDE8FC812C0000203B
:102AE000B0F90220B1F906309A4213DCB1F90220A4
:102AF000B0F906309A420DDCB0F90020B1F904308B
:102B00009A4207DCB1F90010B0F90400814201DCFF
:102B1000012070470020704701460248702200687B
:102B2000FDF784BB2C000020024970220968FDF7E4
:102B30007DBB00002C00002010B503F0DDF803F091
:102B400093F9BDE8104004F0BDBC000070B5094D1C
:102B50000446022C2868467C09D22046FEF7D2FFA4
:102B600028B128684474FFF7E7FF03480460304643
:102B700070BD00002C000020F400002003F0DCB841
:102B800003F012B90149886070470000200000205E
:102B900003F022B903490968CA6900B1C861104647
:102BA000704700002C000020024909688A7E887660
:102BB000104670472C000020094A30B41080094AA2
:102BC0001180094A1268537C084A52F82330DA68A7
:102BD000146A0A46A446014630BC18466047000005
:102BE0006C0000206E0000202C000020440000201B
:102BF000024909680A7E0876104670472C000020BA
:102C000003490968B1F92C208885104670470000F7
:102C10002C00002003490968B1F92A204885104694
:102C2000704700002C00002002480068002800D0F7
:102C3000004770479C01002002498A6802B98860F9
:102C4000FFF7F2BF8C01002010B5040009D009F095
:102C500037F9204609F082FC2046BDE81040FEF717
:102C60008BBC10BD38B50C4660B1FEF73BFD009043
:102C70008089204201D0012400E000246846FEF74C
:102C80007BFD00E00124204638BD000038B5054634
:102C9000002028600648046844B12046FEF722FD63
:102CA0000090006928606846FEF766FD204638BD42
:102CB000A402002038B504004FF000000D46086063
:102CC00011D02046FEF70EFD0090846844B168469E
:102CD000FEF752FD2046FEF705FD009000692860D2
:102CE0006846FEF749FD204638BD00002DE9F04159
:102CF000084E04460568306801682846884707463C
:102D00003068416828468847284420603846BDE836
:102D1000F0810000300000202DE9F0410C4606460D
:102D20000025064F05E0386841683046884706446C
:102D30000544641EF7D22846BDE8F081300000202B
:102D40002DE9F0411E46069C1746884605463A4640
:102D5000A8687F1C3346D0F804C041462846E047A7
:102D6000641EF4D1BDE8F08170B5B0F90040091BD4
:102D7000B0F904408C422CDD00F11404B0F902508B
:102D80000069521B02FB0040CA1800EBE104521E0E
:102D9000D010B0EBE10501F007034FF0FF0102F0A6
:102DA000070221FA03F0C2F1070201FA02F1CEB2E2
:102DB00021780FD001436D1E04F8011B002D05DDA5
:102DC000FF2229462046FDF751FA2C442078304353
:102DD000207070BD30400143217070BD10B5B0F956
:102DE0000030B0F90240C91A00F114030069121B47
:102DF00002FB003000EBE10001F0070302788021C4
:102E0000D9400A43027010BDB0F90610026951435F
:102E10001430FDF732BA00002DE9F843804602F184
:102E20000F000011470003FB07F01C4615468946BA
:102E30001430FEF786FB060013D0FEF753FC00901B
:102E4000A0F80080A0F802908580C48006498160C7
:102E50000121818107616846FEF78EFC3046BDE89E
:102E6000F8830020FBE700002806010870B5B0F9E0
:102E70000660B0F904400B6800F1140596421BDDB2
:102E80000069A34202FB005000EBE30214DA641E67
:102E9000E010A0EBE30512F8010B03F00704A040DB
:102EA000C4B206E045B1083312F8014B23F0070322
:102EB0006D1E002CF6D004E0002070BD6006040EEC
:102EC0005B1C2006FAD5FF2C07D0184602E06406EA
:102ED000240E401C6606FAD400E0D81DC4436407E3
:102EE00005D006E012F8014BFF2C09D108306D1E09
:102EF000F8D5C01A401C0B6070BD6206140E401C51
:102F00002206FAD4F5E738B50546FEF7EBFB00904C
:102F10008189491E0CB284816846FEF72DFC002C85
:102F200002D12846FEF728FB38BD000010B54FF44B
:102F300080410348FEF718FB0248FFF723FE10BD4F
:102F40001C08002030D80008044A1268111800BF7D
:102F5000024A12688A1A002AFADC70470800002028
:102F6000704700000148006870470000080000201A
:102F700070470EB508B102AA00E00022002301A9A3
:102F8000684600F03FFC0EBD074910B50C7818B13B
:102F900001200870801E03E0002008706FF07F4061
:102FA00002F0A6F9204610BD6600002010B5082AE0
:102FB0000EDC0346012A18D0022A56D0042A76D005
:102FC00010F8042B03F8012B491EF9D1012010BD84
:102FD000102A08DC4FEA000230F8043B22F8023BDA
:102FE000491EF9D1F2E7002010BD10F8042BD207DA
:102FF000120E491E34D010F8044B491E04F001048F
:1030000042EA84122CD010F8044B491E04F001044B
:1030100042EA441224D010F8044B491E04F0010483
:1030200042EA04121CD010F8044B491E04F00104BB
:1030300042EAC40214D010F8044B491E04F0010403
:1030400042EA84020CD010F8044B491E04F001043B
:1030500042EA440204D010F8044B04F00104224375
:1030600003F8012B0029C0D1B0E710F8042B920718
:10307000120E491E15D010F8044B491E04F003042B
:1030800042EA04120DD010F8044B491E04F0030468
:1030900042EA840205D010F8044B04F003042243F2
:1030A000491E03F8012B0029DFD18FE7FFE710F855
:1030B000042B1207120E491E05D010F8044B04F021
:1030C0000F042243491E03F8012B0029EFD17DE7AD
:1030D00038B50024009400F01BF838BD0A4810B53C
:1030E000816900290ED101218161FFF71FFF02F0E4
:1030F000E9FE054905481C310860BDE81040084656
:1031000000F074BD10BD0000200000201DB80008B4
:103110002DE9F0410D460699044601B901461F68A4
:10312000082A09DC0E46012A1AD0022A5BD0042A9A
:103130007DD0082A13D18DE0102A07DCD3F810C007
:103140000E46BCF1000F04D0022389E00020BDE848
:10315000F08101CCB84726F8020B6D1EF9D189E049
:1031600001CCB847C0074FEA10686D1E36D001CCBD
:10317000B84748EA801000F0FF086D1E2ED001CC41
:10318000B84748EA401000F0FF086D1E26D001CC79
:10319000B84748EA001000F0FF086D1E1ED001CCB1
:1031A000B84748EAC00000F0FF086D1E16D001CCF9
:1031B000B84748EA800000F0FF086D1E0ED001CC31
:1031C000B84748EA400000F0FF086D1E06D001CC69
:1031D000B84740EA080000F0FF086D1E06F8018BB2
:1031E000002DBDD146E001CCB84780074FEA1068FA
:1031F0006D1E16D001CCB84748EA001000F0FF0859
:103200006D1E0ED001CCB84748EA800000F0FF08E0
:103210006D1E06D001CCB84740EA080000F0FF0858
:103220006D1E06F8018B002DDDD123E0FFE701CCF8
:10323000B84700074FEA10686D1E06D001CCB847AA
:1032400040EA080000F0FF086D1E06F8018B002D13
:10325000EDD10FE0D3F810C0BCF1000F04D0012372
:103260002A462046E04705E001CCB84706F8010BA6
:103270006D1EF9D101206AE77CB5064628480D4647
:10328000006868B1002005F083F806E06A46294628
:10329000304605F0B7FE05F02FF80028F6D17CBDCA
:1032A000106800901F4C506801902268BDF8000023
:1032B00032F84C1F0844ADF80000BDF802009188B8
:1032C0000844ADF80200BDF8040011880844ADF8C8
:1032D0000400BDF8060091880844ADF80600684671
:1032E00005F056F80EE000BF2068BDF800106A46F1
:1032F0004184BDF8021081842946304605F082FEE3
:1033000004F0FAFF0028EFD1206830F8221F428D28
:10331000891A01804188C28D891A41807CBD0000D4
:10332000680000202C0000202DE9FF4F85B09A4650
:1033300090460D46FEF752FE4FF00009DDF814B03E
:1033400006464C4625B1286800906868019002E066
:103350006846FEF737FE18F00C0F02D055460027DE
:1033600013E0BDF902402DE029467F1C059800F0CE
:10337000CBFA01466D1A0598FFF7CEFC0599084473
:10338000059005A800F004FB08B9002DECD108F069
:103390000C00042804D0082802D00C2812D105E023
:1033A000BDF9060007FB1604641C0BE0BDF906001E
:1033B000BDF90210401A07FB1600401C00EBD0704C
:1033C00001EB60045546CDF814B043E0294605985A
:1033D00000F09AFA07460146ED1B059800F06AFADC
:1033E00018F003010ED0012939D002290DD1BDF901
:1033F0000410BDF90020891A091A01EBD17102EB02
:10340000610101E0BDF900108946174A401E484499
:1034100012683946A2F822909484ADF80C00A019E5
:10342000401EADF80890ADF80E00ADF80A4002AAB3
:103430000598FFF721FF39460598FFF76DFC0599C0
:1034400008440590FEF7CAFD044405A800F0A0FA60
:10345000002801D1002DB9D109B000F007B8BDF99D
:103460000410091A491CCFE72C00002030BCBDE82D
:10347000C08F00002DE9FF4F8DB00020DDF86CA05B
:10348000164600901D4604460246CAF8000008ABE6
:1034900003A902A800F0B6F918B1002011B000F09D
:1034A000D1B80898854200DD0546614F0B9561490A
:1034B0003868407C51F82010049109690691FEF7A4
:1034C0005FFD05903868407CFEF7C4FD5A4981468F
:1034D000884204D05949894501D0012000E00020EC
:1034E0000A9001CE1A9988478346000E079077D03C
:1034F000009870BB0D9800EB04084D480068B0F9C7
:103500000800404503DDA0EB0807804600E00027E7
:103510000298049900EB840000EB8700CDE90001DC
:103520000B990D98421809920E9B40461946521E5F
:10353000FFF7A6FA01200090059818280ADA0298E9
:10354000DDE9052300EB840000EB8700E91B00F0B8
:10355000AFF812E00A9880B1029800EB840000EB0B
:1035600087070998A0EB080849463868884701C7CB
:10357000A8F101005FEA0008F6D13148C06980B3C4
:10358000DDE9020700EB840007EB8402CDE90202CB
:103590002B4C361F3046E4692B460299A047FF2189
:1035A0003068B1EB106F02D10298006804E0029A13
:1035B0001268B1EB126F01D1039A1060029806F104
:1035C0000406001D02900398001D03906D1EE7D1B4
:1035D0000397DAF8000040F00101CAF8001020E07B
:1035E00021E0FFE70798FF2811D0C0F1FF02029801
:1035F00050F82410584600F08FFA039941F824003F
:10360000DAF8000040F00101CAF8001005E0029865
:10361000039950F8240041F82400641C6D1E7FF4C7
:1036200060AF03983AE7039941F824B0E8E7000057
:103630002C00002044000020A7580008A5580008CE
:103640007802002030BCBDE8C08F00002DE9F047B3
:103650009A46164B86B01B68DDE90F87DC6CDDF8F7
:1036600038902618186D65188418AAF10100ADF875
:1036700010502044ADF80C60ADF81200ADF80E40CB
:1036800003A804F085FE0BE0CDF80090CDE901879A
:10369000534622462946304607F000F804F02CFE37
:1036A0000028F1D106B0BDE8F08700002C00002012
:1036B0002DE9F05F0C1E16DD5E68014600EB840507
:1036C000082A12DC611E012A26D0022A47D0042AC9
:1036D0006AD0082A07D1071917F8010DB04745F835
:1036E000040D641EF8D100F084B8102AFBDC5F6979
:1036F0003FB12246BC4600F07FB802235DF804EBE0
:10370000604701EB440700BF37F8020DB04745F8AA
:10371000040D641EF8D1E6E700EBE10001F00707B5
:1037200010F801A98146802020FA07F8B5F10405B8
:103730000AEA0800C7F10701C840B04745F8040984
:103740003FB14FEA48604FEA10687F1E641EEFD118
:10375000C9E719F801A907274FF00108F6E700EBC0
:10376000A10001F0030710F801A981467900C020EB
:1037700020FA01F84FF0060BB5F104050AEA08003B
:10378000ABEB4701C840B04745F804093FB14FEAE9
:1037900088604FEA10687F1E641EEFD1A3E70327FD
:1037A00019F801A9B846F7E700EB6100012710F806
:1037B00001A9A7438146B900F02020FA01F84FF093
:1037C000040B2D1F0AEA0800ABEB8701C840B04785
:1037D00045F804093FB14FEA08704FEA10687F1EB0
:1037E000641EEFD17FE719F801A901274FF00F08F8
:1037F000F6E730BCBDE8C09F30BCBDE8C04FFFF766
:103800007CBF00002DE9F047224C06461F46A06908
:1038100090468946002540B90120A06104F12001AD
:103820001D480860084600F0E1F9606930B91B489E
:103830000068606110B901F0D2FF606107B13860C3
:103840004EB1A06830B960698000FDF7C5FEA06088
:1038500000B901253060B9F1000F0AD0E06830B935
:1038600060698000FDF7B8FEE06000B90125C9F885
:103870000000B8F1000F0AD0206930B960698000FB
:10388000FDF7AAFE206100B90125C8F8000028460E
:10389000BDE8F0877802002091B800085C000020A5
:1038A00003480068C069017EC07E11FB00F07047CC
:1038B0002C00002073B5124A01A9009812689047A5
:1038C00000240090C8B10F4900250968C9694969F9
:1038D00059B10A684AB1019990477CBD6846FFF723
:1038E00005FA0546FEF75EFB04440198401E019070
:1038F000F4D5284600F040F8044420467CBD000082
:10390000A00200202C00002073B50D460098002472
:1039100090B10A490968C969496959B14A684AB107
:10392000294690477CBD6846FFF7E0F920B10A2898
:1039300002D0641CAC42F6DB20467CBD2C0000208B
:1039400031B50024009808B905E0641C6846FFF70B
:10395000CDF90028F9D1204638BD0000044AB2F95B
:10396000002002600348B0F90000086070470000C2
:103970006C0000206E00002038B5002469460094D9
:10398000FEF718FB0099814200DD0C1A204638BD75
:10399000016811F8012B12B10A2A02D002E00120BD
:1039A0007047016000207047B0F90030B1F9002085
:1039B000934200DA0280B0F90230B1F9022093425A
:1039C00000DA4280B0F90430B1F90420934200DDFE
:1039D0008280B0F90620B1F906108A4200DDC1806C
:1039E000704770B5B1F90040B2F900309C4200DD7B
:1039F00023460380B1F90250B2F90240A54200DD2E
:103A00002C464480B1F90460B2F90450AE4200DAA9
:103A100035468580B1F90610B2F90620914200DBE7
:103A20001146C1809D4201DBA14201DA002070BD38
:103A3000012070BD014602480068407C00F002B8D9
:103A40002C0000202DE9F84301268946044602286F
:103A50005DDA304F7A6802B190472E4D5FEA090077
:103A600005F1100532D0012803D0B9F1020F4ED173
:103A700018E055F8240088B92046FEF743F8009076
:103A800018B3C0680D21426A6846904702003ED0D4
:103A900049460098904755F824000026401C45F8F8
:103AA000240034E02046FEF72DF8009068B1C0688D
:103AB0000D21426A68469047040028D0386800B15A
:103AC000804749460098A047002620E055F824008A
:103AD000A846012812D12046FEF714F8009068B1DC
:103AE000C0680D21426A68469047050006D03868D4
:103AF00000B1804749460098A847002658F824108E
:103B000009B1012200E00022891A48F82410304649
:103B1000BDE8F8835001002070B5FF23B3EB116FAF
:103B20002CD0C3B213FB02F500F47F4400F47F03F2
:103B300054435343000E10FB02F6C2F1FF00CAB219
:103B400012FB005201F47F4505FB004401F47F05A0
:103B500005FB0033090E11FB0065C2F307204FF48B
:103B60007F024FF47F4102EA132201EA14214FF051
:103B70007F43084303EA05431043184370BD2DE912
:103B8000F04F0646DDE90CB915460C46002080468C
:103B9000584519D20B9F4FF0FF0A01CE08CCAAEB73
:103BA000106202FB09F2B2FBFAF1CAB21946FFF742
:103BB000B3FF20F07F4001C57F1EEED1099804EBD2
:103BC000800408F10100E2E700F000B830BCBDE875
:103BD000C08F0B88134403808B889B1A83804B888B
:103BE00013444380C988891AC180704702494A69D1
:103BF0004260486170470000200000202DE9F84332
:103C00000768064688460025384600F091F840B31C
:103C1000404600F09DF8441C3846FDF755FD8442AF
:103C20000CD1F4B13846FDF75DFD224641460090C7
:103C3000FCF7FCFA6846FDF79FFD11E02046FDF712
:103C40007BFC04000DD0FDF74DFD41460090FCF7D4
:103C50001FFB6846FDF790FD3046FDF7B5FC34606C
:103C600001252846BDE8F88310B502E000F8011BE5
:103C7000521E0AB18307F9D1930818D001EB014411
:103C800002F0030204EB042406E010C01B1F10C066
:103C900040F8084B40F8044C042BF6DA01E010C061
:103CA0005B1E002BFBD102E000F8011B521E002A14
:103CB000FAD110BD10B5830702D520F8021B521EA1
:103CC000530811D001EB0144042B09DB10C01B1F6A
:103CD00010C0042B40F8084B40F8044CF6DA01E021
:103CE00010C05B1E002BFBD1D20700D0018010BD9D
:103CF000024600204FF080414318934201D8D21A67
:103D0000581840088908F7D17047000000B907A08B
:103D100021B906A102E03AB1401C491C02780B7897
:103D20009A42F8D001207047002070470000000040
:103D300038B50D46012448B1FDF7D4FC2946009062
:103D4000FFF7E4FF04466846FDF716FD204638BD40
:103D50004FF0FF3128B100BF10F8012B491C002A99
:103D6000FAD10846704770B5044600F0F7F80646E9
:103D70002546681C00B16D1C00BF00F0EFF8801BE9
:103D8000A842FAD370BD000078B503460022CBE00C
:103D9000012696400D6805EA0604002C72D04D6895
:103DA000022D02D04D68122D13D1D60803F1200543
:103DB00055F826005507EE0E0F25B540A8435607C7
:103DC000F60E0D69B5402843D60803F1200545F8E5
:103DD0002600186856000325B540A8430D7905F064
:103DE00003055600B540284318604D68012D08D0E2
:103DF0004D68022D05D04D68112D02D04D68122D51
:103E000013D1986856000325B540A8435600CD68E5
:103E1000B54028439860586801259540A8430D791E
:103E2000C5F30015954028435860D868560003250F
:103E3000B540A84356008D68B5402843D8604D680A
:103E400005F08055B5F1805F6DD100BF394D2D6E05
:103E500045F00105374E356635462D6E05F00105F6
:103E6000009500BF00BF4FEAB635960855F826000A
:103E700095072E0F0F25B540A843B3F1904F02D1FF
:103E8000002515E04FE02C4DAB4201D101250FE09C
:103E90002A4DAB4201D102250AE0294DAB4201D1A6
:103EA000032505E0274DAB4201D1042500E007259D
:103EB0009607360FB5402843234D960845F826004F
:103EC000224D2868A0434D6805F48035B5F5803F44
:103ED00000D120431D4D28602D1D2868A0434D684A
:103EE00005F40035B5F5003F00D12043174D2D1DD9
:103EF00028602D1D2868A0434D6805F48015B5F590
:103F0000801F00D12043114D083528602D1D2868E1
:103F1000A0434D6805F40015B5F5001F00D12043FE
:103F20000A4D0C352860521C0D68D540002D7FF4D9
:103F30002FAF78BD00100240000400480008004880
:103F4000000C004800100048080001400004014037
:103F50000AB1816100E08162704700000148006899
:103F6000704700000000002002480068401C014922
:103F7000086070470000002010B50024032000F006
:103F8000ADF8002000F008F808B1012401E000F0CD
:103F90001BF8204610BD000070B5044600250948F6
:103FA00000684FF47A71B0FBF1F6304601F017F972
:103FB00008B1012504E000222146501E00F04CF813
:103FC000284670BD0400002008B500BF2148006EDF
:103FD00040F001001F4908660846006E00F001002D
:103FE000009000BF00BF00BF0846806D40F08050C9
:103FF00088650846806D00F08050009000BF00BFCB
:10400000032000F06BF8002211466FF00B0000F067
:1040100023F8002211466FF00A0000F01DF800227C
:1040200011466FF0090000F017F800221146501FEA
:1040300000F012F800221146101F00F00DF80022C7
:104040001146901E00F008F800221146501E00F0A4
:1040500003F808BD001002402DE9F05F80460D46D0
:104060001646002702F096F9074639462A46334697
:1040700001F00700C0F1070ABAF1040F02D94FF0AE
:10408000040A01E0C0F1070AD14600F1040ABAF1BE
:10409000070F02D24FF0000A01E0A0F1030AD44654
:1040A0004FF0010A0AFA09FAAAF1010A0AEA020A19
:1040B0000AFA0CFA4FF0010B0BFA0CFBABF1010BF7
:1040C0000BEA030B4AEA0B042146404602F06AF968
:1040D00000F000B830BCBDE8C09F000000BF00F099
:1040E0000702064B19684FF6FF031940044B0B43B8
:1040F00043EA0221014B196000BF70470CED00E05C
:104100000000FA050246B2F5007F2AD11D4800687A
:1041100000F4C060B0F5007F32D01A48006820F487
:10412000C06040F40070174B1860174800683223D5
:104130005843164BB0FBF3F0411C00E0491E1148F8
:10414000406900F48060B0F5806F01D10029F5D19D
:104150000C48406900F48060B0F5806F10D10320F6
:1041600070470848006800F4C060B0F5806F07D061
:104170000448006820F4C06040F48060014B18607F
:104180000020EDE7007000400400002040420F00D6
:104190000248006800F4C0607047000000700040F2
:1041A0002DE9F84304460025A846208800F4006065
:1041B000B0F5006F26D1606C68B1B0F5000F03D088
:1041C000B0F5400F0ED10CE0D548C06840F4803007
:1041D000D349C86008E00021201D02F017FB054606
:1041E00002E001E0012500BF00BF55B9CC4888308E
:1041F000006820F44000616C0843C949C1F8880098
:1042000000E0A846206800F40030B0F5003F75D10A
:104210004FF00009C248806D012121EA107078B189
:1042200000BFBF48806D40F08050BD49886508469A
:10423000806D00F08050009000BF00BF4FF001097A
:10424000B848006840F48070B6490860FFF786FE01
:10425000074606E0FFF782FEC01B022801D90325AE
:1042600005E0B048006800F480700028F2D000BF7C
:104270007DBBAB489030006800F44076CEB1A06DB5
:10428000B04216D0A6489030006820F44076A4488A
:10429000D0F8900040F48030A149C1F89000084661
:1042A000D0F8900020F48030C1F890000846C0F8A3
:1042B000906006F00100A8B1FFF750FE074609E044
:1042C000FFF74CFEC01B41F28831884202D903251A
:1042D00007E016E092489030006800F002000028E5
:1042E000EED000BF5DB98E489030006820F4407079
:1042F000A16D08438A49C1F8900003E00CE0A8468C
:1043000000E0A846B9F1010F05D18548806D20F085
:1043100080508349886500BF207800F0010048B1D3
:104320007F488830006820F00300216A08437C49F8
:10433000C1F88800207800F00200022809D17848EE
:104340008830006820F00C00616A08437449C1F8A5
:104350008800207800F00400042809D170488830D3
:10436000006820F03000A16A08436D49C1F8880058
:10437000207800F02000202809D1694888300068A2
:1043800020F44060E16A08436549C1F8880020884C
:1043900000F40070B0F5007F09D1614888300068F2
:1043A00020F44020E16B08435D49C1F88800208873
:1043B00000F48060B0F5806F09D1594888300068FA
:1043C00020F44010216C08435549C1F8880020783A
:1043D00000F04000402809D151488830006820F49E
:1043E0004050216B08434E49C1F88800207800F006
:1043F0008000802809D14A488830006820F4404075
:10440000616B08434649C1F88800208800F4807039
:10441000B0F5807F09D142488830006820F44030F0
:10442000A16B08433E49C1F88800206800F40020D1
:10443000B0F5002F1FD13A488830006820F0406066
:10444000A16C0843364988310860A06CB0F1006F58
:1044500006D13348C06840F480103149C8600AE092
:10446000A06CB0F1806F06D10121201D02F0CEF9C1
:10447000054605B1A846206800F48020B0F5802FDD
:104480001FD127488830006820F04060E16C084365
:10449000234988310860E06CB0F1006F06D12048F4
:1044A000C06840F480101E49C8600AE0E06CB0F1BA
:1044B000806F06D10121201D02F0A8F9054605B143
:1044C000A846208800F48040B0F5804F14D11448ED
:1044D0008830006820F04050216D08431049883131
:1044E0000860206DB0F1805F06D10221201D02F02E
:1044F0008DF9054605B1A846208800F40040B0F5C6
:10450000004F09D106488830006820F08040616D76
:1045100008430349C1F888004046BDE8F88300001D
:1045200000100240007000402DE9F04104460D46A5
:1045300014B90120BDE8F0815548006800F007007B
:10454000A8420ED25248006820F007002843504984
:1045500008600846006800F00700A84201D001206A
:10456000E8E7207800F00100002840D060680328C8
:1045700006D14848006800F00070D8B90120D9E79A
:104580006068022806D14348006800F4003088B90A
:104590000120CFE7606830B93E48006800F00200B3
:1045A00040B90120C6E73B48006800F4806008B9C4
:1045B0000120BFE73748806820F0030061680843A6
:1045C00034498860FFF7CAFC064608E0FFF7C6FCDE
:1045D000801B41F28831884201D90320AAE72D4887
:1045E000806800F00C006168B0EB810FEED120789C
:1045F00000F00200022807D12648806820F0F00071
:10460000A1680843234988602148006800F007003A
:10461000A8420ED91E48006820F0070028431C4914
:1046200008600846006800F00700A84201D0012099
:1046300080E7207800F00400042807D1154880683E
:1046400020F4E060E168084312498860207800F0B7
:104650000800082808D10F48806820F460502169BC
:1046600040EAC1000B49886000F044F809498968B4
:10467000C1F30311084A515C01F01F01C84007490A
:1046800008600020FFF788FC0746384652E7000024
:10469000002002400010024028D000080400002042
:1046A00001480068704700000400002000B5FFF7D3
:1046B000F7FF05498968C1F30221044A515C01F002
:1046C0001F01C84000BD00000010024038D00008A3
:1046D00000B5FFF7E5FF05498968C1F3C221044A27
:1046E000515C01F01F01C84000BD000000100240F5
:1046F00038D000082DE9F04100240020DFF800C187
:10470000DCF808C00CF00C01DFF8F4C0DCF80CC0D9
:104710000CF0030719B10C291ED1012F1CD1DFF8B1
:10472000E0C0DCF800C00CF0080CBCF1000F06D1B2
:10473000DFF8CCC0DCF894C0CCF3032405E0DFF84C
:10474000C0C0DCF800C0CCF30314DFF8B8C05CF8DC
:10475000244041B9204606E0042901D12A4802E05C
:10476000082900D129480C2947D1DFF894C0DCF88A
:104770000CC00CF00305DFF888C0DCF80CC0CCF3EB
:10478000021C0CF10103012D1FD0022D02D0032DBC
:104790001AD10CE0DFF870C0BCFBF3FCDFF86080DE
:1047A000D8F80C80C8F306280CFB08F218E0DFF8F4
:1047B0005CC0BCFBF3FCDFF84880D8F80C80C8F381
:1047C00006280CFB08F20BE000BFB4FBF3FCDFF89B
:1047D0003080D8F80C80C8F306280CFB08F200BF24
:1047E00000BFDFF81CC0DCF80CC0CCF3416C0CF14E
:1047F000010C4FEA4C06B2FBF6F0BDE8F081000078
:104800000010024040D000080024F40000127A009A
:104810002DE9F843044614B90120BDE8F883F848AF
:10482000806800F00C06F648C06800F003072078A6
:1048300000F01000102875D11EB10C2E74D1012F7C
:1048400072D1EF48006800F0020018B1A06908B901
:104850000120E2E7EA48216A006800F0080020B180
:10486000E748006800F0F00005E0E5489430006893
:1048700000F47060000981421FD9206A02F08AF8B2
:1048800008B10120C9E700BFDD48006840F008001A
:10489000DB4908600846006820F0F000216A084300
:1048A000D749086000BF0846406820F47F40E169AE
:1048B00040EA0120D24948601EE000BFD0480068AD
:1048C00040F00800CE4908600846006820F0F0007B
:1048D000216A0843CA49086000BF0846406820F4BE
:1048E0007F40E16940EA0120C5494860206A02F042
:1048F00051F808B1012090E7FFF7FCFEC049896834
:10490000C1F30311BF4A515C01F01F01C840BE4909
:1049100008600020FFF740FB8046B8F1000F4ED042
:1049200040467AE74BE0FFE7A06980B3B4480068EF
:1049300040F00100B2490860FFF710FB054606E0B1
:10494000FFF70CFB401B022801D9032065E7AC48A8
:10495000006800F002000028F2D000BFA8480068FC
:1049600040F00800A64908600846006820F0F00002
:10497000216A0843A249086000BF0846406820F445
:104980007F40E16940EA01209D49486017E0FFE768
:104990009B48006820F0010099490860FFF7DEFAA3
:1049A000054606E0FFF7DAFA401B022801D903208A
:1049B00033E79348006800F002000028F2D1207825
:1049C00000F0010000285CD0082E03D00C2E0AD184
:1049D000032F08D18A48006800F4003088B360686B
:1049E00078BB012019E700BF6068B0F5803F06D1B1
:1049F0008348006840F48030814908601AE06068AC
:104A0000B0F5A02F0BD17E48006840F480207C498F
:104A100008600846006840F4803008600AE0784882
:104A2000006820F48030764908600846006820F469
:104A30008020086000BF606890B1FFF78FFA0546DC
:104A400007E01EE0FFF78AFA401B642801D9032023
:104A5000E3E66B48006800F400300028F2D010E074
:104A6000FFF77CFA054606E0FFF778FA401B64285A
:104A700001D90320D1E66248006800F40030002824
:104A8000F2D1207800F00200022852D1042E03D087
:104A90000C2E14D1022F12D15948006800F4806006
:104AA00018B1E06808B90120B7E65548406820F021
:104AB000F850217C40EA01605149486039E0E068E3
:104AC00000B34F48006840F480704D490860FFF71C
:104AD00045FA054606E0FFF741FA401B022801D9D6
:104AE00003209AE64648006800F480600028F2D06F
:104AF0004348406820F0F850217C40EA016040497A
:104B0000486016E03E48006820F480703C49086028
:104B1000FFF724FA054606E0FFF720FA401B0228BB
:104B200001D9032079E63648006800F48060002847
:104B3000F2D1207800F00800082836D16069D0B1A1
:104B40002F489430006840F001002D49C1F89400CE
:104B5000FFF704FA054606E0FFF700FA401B0228BB
:104B600001D9032059E626489430006800F002007D
:104B70000028F1D019E022489430006820F00100AC
:104B80001F49C1F89400FFF7E9F9054606E0FFF771
:104B9000E5F9401B022801D903203EE6184894306D
:104BA000006800F002000028F1D1207800F0040035
:104BB000042870D14FF000091148806D00F080503A
:104BC00078B900BF0E48806D40F080500C49886570
:104BD0000846806D00F08050009000BF00BF4FF08D
:104BE00001090A48006800F48070F0B907480068BD
:104BF00040F4807005490860FFF7B0F905460EE003
:104C00000010024028D0000804000020007000407E
:104C1000FFF7A4F9401B022801D90320FDE59B48BA
:104C2000006800F480700028F2D000BFA06801285E
:104C300008D19748006840F0010095499039C1F8C3
:104C4000900021E0A06805280FD19148006840F04D
:104C500004008F499039C1F890000846D0F89000C0
:104C600040F00100C1F890000EE08948006820F093
:104C7000010087499039C1F890000846D0F89000AB
:104C800020F00400C1F8900000BFA068A0B1FFF7B9
:104C900065F9054609E02EE0FFF760F9401B41F297
:104CA0008831884201D90320B7E57948006800F0CF
:104CB00002000028F0D012E0FFF750F9054608E0A6
:104CC000FFF74CF9401B41F28831884201D903209B
:104CD000A3E56F48006800F002000028F0D1B9F1A8
:104CE000010F07D16A489038806D20F080506849E4
:104CF0009039886500BF207800F02000202838D146
:104D0000606AD8B162480830006840F0010060492C
:104D10009039C1F89800FFF721F9054606E0FFF742
:104D20001DF9401B022801D9032076E558480830B8
:104D3000006800F002000028F1D01AE05448083062
:104D4000006820F0010052499039C1F89800FFF73F
:104D500005F9054606E0FFF701F9401B022801D9D5
:104D600003205AE54A480830006800F00200002895
:104D7000F1D1A06AF0B30C2E74D0A06A022853D1EE
:104D800043489038006820F08070414990390860AD
:104D9000FFF7E4F8054606E0FFF7E0F8401B0228BD
:104DA00001D9032039E53A489038006800F00070D6
:104DB0000028F1D1206B401E0101606B41EA002008
:104DC000E16A0843A18F0122C2EB510140EA41513F
:104DD0004020005DC2EB500041EA40613820005D98
:104DE00041EAC0602A499039C8600846006840F02E
:104DF000807000E048E008600846C06840F08070BD
:104E0000C860FFF7ABF8054606E0FFF7A7F8401BC0
:104E1000022801D9032000E51D489038006800F001
:104E200000700028F1D02FE019489038006820F079
:104E300080701749903908600846006800F00060EB
:104E400020B90846C06820F00300C86010489038B8
:104E5000C068104908400E499039C860FFF77EF8D5
:104E6000054607E00EE0FFF779F8401B022801D95C
:104E70000320D2E406489038006800F00070002853
:104E8000F1D101E00120C8E40020C6E40070004038
:104E900090100240FFFFEEFE70B504460CB90120F1
:104EA00070BD606A00B900BF0021A16294F85D0086
:104EB00028B9002084F85C00204600F04DF802205C
:104EC00084F85D002068006820F0400021680860D8
:104ED000E068B0F5E06F01D9002501E04FF480559E
:104EE000E068B0F5706F05D0E068B0F5E06F01D014
:104EF0000021A162206B40B9E068B0F5E06F02D9F3
:104F00000221216301E001212163D4E90101084369
:104F10002169084361690843218B01F4007108434A
:104F2000E1690843216A0843A16A084321680860CF
:104F30000421A06901EA1040616A0843616B0843DB
:104F4000E16808432843216848600020206601206A
:104F500084F85D000020A3E710B586B00446184928
:104F6000206888422AD100BF1648806D40F48040F6
:104F7000144988650846806D00F48040009000BFA9
:104F800000BF08200190022002900020039003201F
:104F900004900520059001A90B48FEF7F5FE4FF49B
:104FA0000050019002200290002003900320049002
:104FB0000520059001A90548FEF7E6FE06B010BDE4
:104FC000003800400010024000080048000400487B
:104FD0002DE9F84F0446884616461D464FF0000A54
:104FE00000BF94F85C00012802D1022000F0DFB875
:104FF000012084F85C0000BFFEF7B0FF0746B14611
:1050000094F85D00012802D04FF0020AC5E0B8F123
:10501000000F00D016B94FF0010ABEE0032084F85B
:105020005D0000202066C4F83880A687E6872064EB
:10503000A4F84400A4F846002065E064A068B0F538
:10504000004F05D12068006840F480402168086066
:105050002068006800F04000402805D02068006803
:1050600040F0400021680860E068B0F5E06F2FD99B
:10507000606810B1B9F1010F09D1A06B00882168F7
:10508000C860A06B801CA063E08F401EE0871BE01F
:105090002068806800F0020002280AD1A06B008816
:1050A0002168C860A06B801CA063E08F401EE08771
:1050B0000AE0FEF753FFC01BA84201D3681C00B9E9
:1050C00015B94FF0030A68E0E08F0028E0D14AE00C
:1050D000606810B1B9F1010F17D1E08F01280AD92A
:1050E000A06B00882168C860A06B801CA063E08F63
:1050F000801EE08709E0A06B007821680873A06B30
:10510000401CA063E08F401EE08729E02068806893
:1051100000F00200022818D1E08F01280AD9A06B04
:1051200000882168C860A06B801CA063E08F801E8F
:10513000E08715E0A06B007821680873A06B401C25
:10514000A063E08F401EE0870AE0FEF707FFC01B68
:10515000A84201D3681C00B915B94FF0030A1CE03E
:10516000E08F0028D2D13A462946204601F06CFC57
:1051700008B120202066A06850B900BF0020009030
:105180002068C068009020688068009000BF00BF61
:10519000206E08B14FF0010A00BF012084F85D00C5
:1051A00000BF002084F85C0000BF50461EE718BC1A
:1051B000BDE8E08F042808D14FF0E021096941F0F3
:1051C00004014FF0E022116107E04FF0E02109698E
:1051D00021F004014FF0E02211617047704770B573
:1051E00004462546681EB0F1807F01D301200FE000
:1051F000681E4FF0E02148610F214FF0FF3001F0B1
:10520000D1F800204FF0E0218861072008610020DC
:1052100070BD10B5FFF7E2FF10BD10B504460CB924
:10522000012010BDA06900B100E000BF94F871003A
:1052300028B9002084F87000204600F02BF82420C4
:1052400084F871002068006820F00100216808607F
:10525000204601F021FE012800D1E2E7606A10B18A
:10526000204601F063FD2068406820F490402168EA
:1052700048602068806820F02A00216888602068E3
:10528000006840F0010021680860204601F0CAFD76
:10529000C7E7000010B586B004461249206888426E
:1052A0001DD100BF1048006E40F480400E490866D2
:1052B0000846006E00F48040009000BF00BF4FF42D
:1052C000C06001900220029000200390032004900F
:1052D0000720059001A94FF09040FEF755FD06B05C
:1052E00010BD0000003801400010024000BFFEE782
:1052F00002490A680860104670470000BC0200209E
:105300002DE9F04104460D4616461F462A2000F0BE
:10531000BDFD201200F0C8FDE0B200F0C5FD301266
:1053200000F0C2FDF0B200F0BFFD2B2000F0AEFD9A
:10533000281200F0B9FDE8B200F0B6FD381200F016
:10534000B3FDF8B200F0B0FD2C2000F09FFDBDE8E9
:10535000F0810000F8B505460020009028128DF875
:105360000000E8B28DF80100EF231A46002108463C
:10537000FFF7C6FF00240DE09DF800000F4901F87B
:1053800014009DF80100012101EB44010B4A505427
:10539000601C84B2B4F5107FEEDB01224021084886
:1053A000FEF7D6FD002606E04FF49061034800F0BA
:1053B0009AFC701C86B2642EF6DBF8BD9C030020BC
:1053C000000800480449054A0968497C52F8211040
:1053D00009690968084700002C00002044000020EB
:1053E0002DE9F04F05468DB07B48DDF860901A9CA2
:1053F00000681E4617464FF0000A78B11B9B199AA9
:10540000CDF808900593CDE90324DDE91623CDE915
:105410000023046833463A46284680E0DDE9160258
:1054200001EB060805EB070C1043A8F10108ACF1ED
:10543000010C012806D0C9F1080005900020029156
:105440000990C6E065480268B2F90A30581A002887
:1054500006DD361A002E63DD1946199B00FB034456
:10546000B2F90E00A8EB0000002802DD361A002E6B
:1054700056DDB2F90C00ACEB0000002800DD3F1A4D
:10548000B2F908300020AB4235DD581B3F1A4B46BD
:10549000B9F1080F26D006DC012B0BD0022B11D05E
:1054A000042B28D116E0102B1ED0182B1FD0202B38
:1054B00021D11CE020F0070304EBE0041D4400F0C0
:1054C000070018E020F0030304EBA0041D4400F0E3
:1054D000030010E020F0010304EB60041D4400F021
:1054E000010008E0044404E004EB400401E004EBA4
:1054F000800405440020002F12DD1B9BDDF864C0F2
:10550000CDE90403CDE90069CDE902C4527C3448F9
:105510003B4650F82200C26854680A462946A04714
:105520000DB000F05FB81799029808440C902B4911
:10553000401E00900A68B2F90A30834241DCB2F999
:105540000E10029881423CDB4FF0000BD8460395C9
:105550000A9434E0BBF1000F05D10A984FF0080B14
:1055600010F801AB0A900599ABEB090B3AFA01F080
:105570000AFA09F101F0FF0A04D118490968097C07
:10558000890716D415490968C96B0A680B921B9ADA
:105590000AB152F82000086016990398009B42183F
:1055A000521E029900F0ACF80C490B980968C96BBF
:1055B00008600399169808F1010808440390B8455B
:1055C000C8DB0998401C09900C9802901998044473
:1055D0000998B042A7DBA3E7680000202C00002058
:1055E0004400002030BCBDE8C08F0000F0B40C4681
:1055F00012490968B1F90A30A3421CDCB1F90E3036
:10560000A34218DBB1F90830834200DD1846B1F936
:105610000C30934200DA1A4682420CDB4B7C08497C
:1056200051F8235013462246E9688E680146284601
:10563000B446F0BC6047F0BC704700002C0000206E
:10564000440000200A46174930B40968B1F90A300D
:10565000934225DCB1F90E30934221DBB1F90830D9
:1056600083421DDCB1F90C30834219DB0B7C0E4CFC
:10567000DB0709D0497C54F82130D968CC69014650
:10568000A44630BC18466047CB6B497C1B6854F875
:105690002140E1688D6901462046AC4630BC604738
:1056A00030BC70472C00002044000020124B30B466
:1056B0001B68B3F9084084421CDCB3F90C408442F7
:1056C00018DBB3F90A408C4200DD2146B3F90E40E5
:1056D000944200DA22468A420CDB5C7C074B53F88A
:1056E0002440E368DD6813460A4601462046AC467E
:1056F00030BC604730BC70472C00002044000020C4
:1057000038B5134C2468B4F90850854200DD2846AA
:10571000B4F90C50954200DA2A46824217DBB4F9FC
:105720000A508D4200DD2946B4F90E509D4200DA40
:105730002B468B420BDB0093647C064B53F82440D2
:10574000E3681D6913460A4601462046A84738BD4E
:105750002C00002044000020082105F058BD000066
:1057600002480068806B0068704700002C00002031
:1057700002480068C06B0068704700002C000020E1
:10578000024809210068407C05F041BD2C00002042
:10579000092105F03CBD70B500252C462046FCF7DC
:1057A000B1F900B16D1C641C022CF7DB284670BDFA
:1057B00002480068407C00F003B800002C00002084
:1057C00010B5FCF79FF9002805D0C168CA6ABDE88A
:1057D00010400221104710BD032105F018BD032021
:1057E00005F081BD042105F012BD00000248012131
:1057F0000068407C05F00BBD2C00002001480068CB
:1058000070470000BC010020012105F000BD01200F
:1058100005F069BD024802210068407C05F0F7BC34
:105820002C0000200148406870470000BC010020A7
:10583000022105F0ECBC022005F055BDAFF300805D
:105840002DE9F041002809D0876837B10D4E716805
:1058500019B10468B4F5807F02DD0020BDE8F08155
:105860003068844200DD0446002507E057F8250033
:10587000FFF7A8FD716841F825006D1CA542F5DB16
:105880007068EBE7AC0100200449054A0968497CCF
:1058900052F8211009694968084700002C000020CF
:1058A000440000207047704710B500F01F01074A00
:1058B000074BC0F34514C0F3C4201B5D105C515C62
:1058C00000EB032000EB014010BD0000D8F0000801
:1058D000F8F0000810B500224FF400416C48FEF7C4
:1058E00037FB002280216B48FEF732FB0C20FEF7CD
:1058F0003AFA012280216748FEF72AFB0C20FEF7C6
:1059000032FA112000F0C2FA0C20FEF72CFA3620F1
:1059100000F0BCFA002000F0C7FA3A2000F0B6FA16
:10592000652000F0C1FAB22000F0B0FA0C2000F0BF
:10593000BBFA0C2000F0B8FA002000F0B5FA3320D2
:1059400000F0B2FA332000F0AFFAB72000F09EFA70
:10595000722000F0A9FABB2000F098FA3D2000F078
:10596000A3FAC02000F092FA2C2000F09DFAC22089
:1059700000F08CFA012000F097FAC32000F086FABC
:10598000192000F091FAC42000F080FA202000F0E5
:105990008BFAC62000F07AFA0F2000F085FAD020AA
:1059A00000F074FAA42000F07FFAA12000F07CFA45
:1059B000E02000F06BFAD02000F076FA042000F02E
:1059C00073FA0D2000F070FA112000F06DFA132028
:1059D00000F06AFA2B2000F067FA3F2000F064FA2A
:1059E000542000F061FA4C2000F05EFA182000F01C
:1059F0005BFA0D2000F058FA0B2000F055FA1F203A
:105A000000F052FA232000F04FFAE12000F03EFAB5
:105A1000D02000F049FA042000F046FA0C2000F0F3
:105A200043FA112000F040FA132000F03DFA2C2038
:105A300000F03AFA3F2000F037FA442000F034FA40
:105A4000512000F031FA2F2000F02EFA1F2000F034
:105A50002BFA1F2000F028FA202000F025FA23203E
:105A600000F022FA212000F011FA292000F00EFAAD
:105A7000EF231A4600210846FFF742FC0020FFF7FB
:105A800069FC0122D1030248FEF762FA10BD000052
:105A9000000400480008004810B50A4C606860B96E
:105AA00020688000FBF798FD606040B104F10801B8
:105AB000054808600846FEF799F8002010BD01204F
:105AC00010BD0000AC0100207DB800082DE9F047B2
:105AD000FFF761FE07460024DFF860802AE02046D9
