:020000040800F2
:10000000E00F0020A10100081B280008ED1D0008DA
:10001000192800086D030008953200080000000050
:10002000000000000000000000000000792A000825
:100030006F030008000000001D280008A52A000822
:10004000BB010008BB010008BB010008BB010008A0
:10005000BB010008BB010008BB010008BB01000890
:10006000BB010008BB010008BB010008BB01000880
:10007000BB010008BB010008BB010008BB01000870
:10008000BB010008BB010008BB010008BB01000860
:10009000BB010008BB010008BB010008BB01000850
:1000A000BB010008BB010008BB010008BB01000840
:1000B000BB0100080000000000000000BB010008B8
:1000C000BB010008BB010008BB010008BB01000820
:1000D000BB010008BB010008BB010008BB01000810
:1000E000BB010008BB010008000000000000000088
:1000F0000000000000000000000000000000000000
:1001000000000000BB01000800000000BB01000867
:100110000000000000000000BB010008BB01000857
:10012000BB010008BB010008BB010008BB010008BF
:10013000BB010008000000000000000000000000FB
:10014000BB010008BB010008BB0100080000000063
:10015000BB010008BB010008BB010008BB0100088F
:10016000BB010008BB010008BB0100080000000043
:10017000BB010008BB0100080000000000000000F7
:10018000BB010008BB010008BB010008DFF80CD070
:1001900000F0A6F800480047C1360008E00F002034
:1001A0000648804706480047FEE7FEE7FEE7FEE711
:1001B000FEE7FEE7FEE7FEE7FEE7FEE7412B00086D
:1001C0008D0100082DE9F05F0546002092469B4610
:1001D00088460646814640241BE02846414647465D
:1001E000224600F06CF853465A46C01A914110D38B
:1001F00011461846224600F053F82D1A67EB010805
:100200004F4622460120002100F04AF817EB000972
:100210004E41201EA4F10104DFDC484631462A4647
:10022000434600F000B830BCBDE8C09F40EA01037F
:100230009B0703D009E008C9121F08C0042AFAD29C
:1002400003E011F8013B00F8013B521EF9D2704760
:10025000D2B201E000F8012B491EFBD27047002208
:10026000F6E710B513460A4604461946FFF7F0FFB5
:10027000204610BD30B50B46014600202022012447
:1002800009E021FA02F59D4205D303FA02F5491B64
:1002900004FA02F52844151EA2F10102F1DC30BD7A
:1002A000202A04DB203A00FA02F100207047914036
:1002B000C2F1200320FA03F3194390407047202A2B
:1002C00004DB203A21FA02F00021704721FA02F300
:1002D000D040C2F120029140084319467047000007
:1002E000064C074D06E0E06840F0010394E8070083
:1002F00098471034AC42F6D3FFF74CFF9CD103086B
:10030000BCD1030870B504460068816811F0010F84
:1003100028D18168144A114215D18168D5432940FA
:10032000491C816000F0C8FC064616E0816811F0A7
:10033000010F03D181682940491C816000F0BCFC99
:10034000801B022809D9606D40F010006065A06D27
:1003500040F00100A065012070BD20680168C9431C
:10036000C907E3D1002070BD3F000080FEE7704761
:10037000704700000A784978B03AC2EB021303EBE9
:10038000421201EB4201044A02EB41112022A1F585
:10039000A151FFF74BBF0000A03700082DE9F84F2F
:1003A00000270446009790F85000DFF8B0930D4600
:1003B000B846012811D0012684F85060206802F068
:1003C000D3F860B1606D40F0200060655FF0010718
:1003D00084F85080384600F0D7B90220FBE76868FF
:1003E0000C23052812D8022807D0032807D0042898
:1003F00007D0052807D0062007E06B6006E0122032
:1004000003E0182001E04FF480706860D5E9002116
:10041000206803EA91131844036B01F01F014FF0A9
:100420001F0C0CFA01FCC2F3846223EA0C038A401D
:1004300013430363206802F097F88246206802F0B5
:100440008FF85AEA00001DD1AA682968206802F0D6
:1004500097F820686969C268C2F3C10252009140EE
:100460002A69042A0FD000EB82002B68026EDFF8A5
:10047000F0C203F0F84302EA0C020B431A4342F0C5
:100480000041016672E0002102F064F84003206838
:100490004FF0000172D002F05DF890FAA0F0B0FACF
:1004A00080F1286842036ED090FAA0F0B0FA80F094
:1004B000814204D100221146206802F070F8012127
:1004C000206802F047F8400320684FF001015DD03A
:1004D00002F040F890FAA0F0B0FA80F128684203E8
:1004E00059D090FAA0F0B0FA80F0814204D10022F5
:1004F0000121206802F053F80221206802F02AF856
:10050000400320684FF0020148D002F023F890FA2F
:10051000A0F0B0FA80F12868420344D090FAA0F02D
:10052000B0FA80F0814204D100220221206802F05A
:1005300036F80321206802F00DF8400320684FF0E0
:10054000030133D002F006F890FAA0F0B0FA80F17F
:10055000286842032FD090FAA0F0B0FA80F08142D0
:1005600004D100220321206802F019F82068816874
:1005700011F0010F22D0ACE000E004E001F0EAFF4E
:10058000C0F384618DE7C0F3846091E701F0E2FF7E
:10059000C0F38461A2E7C0F38460A6E701F0DAFF4C
:1005A000C0F38461B7E7C0F38460BBE701F0D2FF1A
:1005B000C0F38461CCE7C0F38460D0E72A7B29686C
:1005C00050F8B03FC1F3120C23EA0C0302F0180CF0
:1005D000644A22FA0CF20A4013430360E968494571
:1005E00077D1286841031CD090FAA0F1B1FA81F1CB
:1005F000491C01F01F0109294FEA403132D8002976
:1006000012D000BF90FAA0F1B1FA81F101F101011D
:1006100001F01F0106FA01F609D100BFC0F38461A1
:1006200009E0C0F38461E3E7C0F38461EEE790FA88
:10063000A0F1B1FA81F101F1010101F01F0146EAD7
:10064000816102D1C0F3846003E090FAA0F0B0FAB7
:1006500080F000F1010000F01F0000EB400041EAD3
:10066000005132E000290ED090FAA0F1B1FA81F1E8
:1006700001F1010101F01F0106FA01F606D100BFE8
:10068000C0F3846106E0C0F38461F1E790FAA0F161
:10069000B1FA81F101F1010101F01F0146EA816126
:1006A00002D1C0F3846003E090FAA0F0B0FA80F0C9
:1006B00000F1010000F01F002B4A00EB400002EBAC
:1006C000005041EA000141F00071AA68206801F081
:1006D00057FF26482A6802423FF47AAE24488168D0
:1006E000244D254B01F0E071AA421AD10D0218D415
:1006F00022689A427FF46CAE826841F4000122F0D5
:10070000E0720A4382601D481D490068B0FBF1F0A9
:1007100000EB4000800000E0401E00900028FBD16C
:1007200056E6184DAA4207D1CD0105D422689A4257
:10073000F6D141F080710AE06FF00045EA42EFD156
:100740004A02EDD422689A42EAD141F480018268DB
:1007500022F0E0720A4382603AE6000000007F4027
:1007600000F0FF03FFFF0700000020FE00000880EC
:1007700000030450000052C7000004503400002061
:10078000400D0300000084CB18BCBDE8E08F00687A
:10079000006C7047F8B54FF0000504002E46009538
:1007A00002D0606D10B107E00120F8BD204600F0D6
:1007B000C7F8A66584F8506020688168C1F340716D
:1007C00019B18168564A1140816020688168C1F37F
:1007D000007179B98168534A114041F080518160BC
:1007E000514852490068B0FBF1F000E0401E009013
:1007F0000028FBD120688168C1F3007141B9616DA7
:1008000041F010016165A16D41F00101A165012573
:1008100001F0AAFE616DC90600D430B1606D40F0F0
:100820001000606501252846F8BD606D20F48070D9
:1008300040F0020060652068806810F0010F0BD165
:100840003B48806810F0010F06D13A486168826821
:1008500022F47C120A438260E168606B627E084386
:10086000A16841EA4231084394F8201040EA01406F
:10087000012904D1A18C304A02EB41410843A16A0D
:1008800029B101F47071E26A014342EA0100216872
:10089000CA682A4B1A400243CA60206801F064FE0D
:1008A0000646206801F05CFE304315D1207E94F8A6
:1008B0003010800340EA41022068C16844F202031C
:1008C00099431143C16094F8380001280CD0206886
:1008D000016921F001010161206901282068016B93
:1008E00021F00F0111D013E0D4E90F010843D4E93E
:1008F00011121143084321680A6940F2FC739A43BC
:10090000104340F001000861E6E7E269521E11431E
:100910000163606D20F0020040F00100606582E735
:10092000C0FFFF5FC0FFFF7F34000020400D0300C9
:1009300000000450000304500000FEFF07C0F0FF59
:1009400010B586B0044614216846FFF788FC1049AC
:10095000206888421AD10F48C16C41F40051C1642B
:10096000C16C01F400510591C16C41F00401C164F6
:10097000C06C694600F004000590042000900B2034
:10098000019000200290044800F0B2F806B010BDBB
:100990000000045000100240000800482DE9F0411A
:1009A000044640690D4608280AD02068C068C00780
:1009B00008D0606D40F0200060650120BDE8F08146
:1009C000082600E0042600F077F9074607E0681CD7
:1009D00005D000F071F9C01BA8420FD875B120688E
:1009E00000683042F3D0606D40F4007060652068AC
:1009F00001F0BEFDD0B1607E48B117E0606D40F0FF
:100A000004006065002084F850000320D6E72068C9
:100A1000006800070AD5606D20F480706065606D25
:100A2000C00403D4606D40F0010060652068C168B7
:100A3000082E05D0490401D40C2101600020BDE737
:100A40000821FAE710B50446006801F08DFD10B1E9
:100A50000221084610BD94F8500001280CD0012056
:100A600084F850002046FFF74DFC01004FF00000D5
:100A700004D084F85000ECE7022010BD626D40F60F
:100A800001639A4342F480726265626DD20404D5B8
:100A9000A26D22F00602A26500E0A06523681C2278
:100AA0001A6084F850002068C268920105D5626D12
:100AB00022F4005242F4805262658268024B1A406E
:100AC000121D8260C5E70000C0FFFF7F70B50446BD
:100AD00000F0F2F80546601C02D004484068044467
:100AE00000F0EAF8401BA042FAD370BD28000020B5
:100AF0002DE9FC4FDFF894A1002301250AF1040B36
:100B000003244FF00F0C0BF1040EB8E005FA03F6C6
:100B100032406FD04F68012F05D0022F03D0112F24
:100B200001D0122F17D1D0F808905F0004FA07F80F
:100B300029EA08090097D1F80C8008FA07F848EA72
:100B40000908C0F808804768B7430E79C6F3001655
:100B50009E403E434660C6684FEA430804FA08F7E1
:100B6000BE4301978F6807FA08F73743C7604E689E
:100B7000022E01D0122E13D1DE0800EB860600965D
:100B8000366A5F07FF0E0CFA07F926EA0906D1F864
:100B9000109009FA07F949EA0609009EC6F8209064
:100BA0000668019FBE430F7907F0030707FA08F7AD
:100BB000374307604E68F60060D5354E376E47F014
:100BC00001073766366E23F0030706F0010600962C
:100BD000304E3E44B146B6689F074FEA17780CFA8C
:100BE00008F7BE43B0F1904F05D02B4FB84204D167
:100BF000012712E042E000270FE0284FB84201D160
:100C000002270AE0264FB84201D1032705E0254F0D
:100C1000B84201D1042700E0072707FA08F7374355
:100C2000C9F80870DAF800605746D1F80480964396
:100C30005FEAC83800D516433E60DBF800605F46C7
:100C4000D1F8048096435FEA883800D516433E60A9
:100C5000DEF800607746D1F8048096435FEAC82842
:100C600000D516433E60094F0C373E68D1F804802A
:100C700096435FEA882800D516433E605B1C0A68ED
:100C800032FA03F67FF442AF00F00EB800040140E0
:100C90000010024000000140000400480008004825
:100CA000000C0048001000481CBCBDE8E08F0AB1F1
:100CB0008161704781627047014880687047000019
:100CC0002800002002488168426811448160704712
:100CD0002800002010B50024032000F063F8002055
:100CE00000F008F808B1012401E000F025F82046E2
:100CF00010BD000070B50E4E05460024706898B116
:100D00004FF47A71B1FBF0F00A490968B1FBF0F0D9
:100D100000F046FE40B9102D06D200222946501E92
:100D200000F020F8356000E00124204670BD00008E
:100D30002800002034000020094808B5016E41F069
:100D400001010166016E01F001010091816D41F028
:100D500080518165806D00F08050009008BD0000DA
:100D600000100240F0B40E4B1B680C46C3F3022384
:100D7000C3F10705042D00D90425191D072901D247
:100D8000002300E0DB1E012606FA05F1491E214082
:100D900099409E40761E16403143F0BC02F090BA56
:100DA0000CED00E0064900F0070208684FF6FF036B
:100DB000184040EA0220034A1043086070470000D0
:100DC0000CED00E00000FA051649B0F5007F086858
:100DD000C0F3412009D0022805D0086820F4C06083
:100DE00040F480600860002070470128FBD008684C
:100DF00020F4C06040F4007008600B4832220068A4
:100E000050430A4AB0FBF2F0401C00E0401E4A6921
:100E1000520501D50028F9D148694005E3D50320E2
:100E200070470000007000403400002040420F0076
:100E30000248006800F4C060704700000070004085
:100E40002DE9F84F044600270088A84D3E460005CE
:100E500015D5606C60B1B0F5000F04D0B0F5400F4F
:100E60002BD001270AE0E86840F48030E86024E0F5
:100E70000021201D01F02CFD07001ED03E462068F9
:100E800080033AD5A86D4FF00008C00009D4A86DC2
:100E900040F08050A865A86D4FF0010800F0805028
:100EA0000090DFF84CA2DAF8001041F48071CAF823
:100EB0000010FFF701FF814610E0D5F88800616C53
:100EC00020F440000843C5F88800D8E7FFF7F4FE97
:100ED000A0EB0900022801D9032705E0DAF8000099
:100EE000C005F3D5002F7DD04FEA0706B8F1000FFB
:100EF00003D0A86D20F08050A8652078C00707D0E7
:100F0000D5F88800216A20F003000843C5F888005E
:100F10002078800707D5D5F88800616A20F00C009A
:100F20000843C5F888002078400707D5D5F8880021
:100F3000A16A20F030000843C5F8880020788006B8
:100F400007D5D5F88800E16A20F440600843C5F869
:100F500088002088800507D5D5F88800E16B20F44B
:100F600040200843C5F888002088400507D5D5F8FB
:100F70008800216C20F440100843C5F888002078D0
:100F8000400607D5D5F88800216B20F4405008436F
:100F9000C5F888002078000607D5D5F88800616B71
:100FA00020F440400843C5F888002088C00507D5D4
:100FB000D5F88800A16B20F440300843C5F88800BC
:100FC00020684FF0006700034FF0806850D5D5F8D7
:100FD0008800A16C20F040600843C5F88800A06C30
:100FE000B84200E005E03BD1E86840F48010E860DA
:100FF0003EE0D5F8900010F4407014D0A16D81420D
:1010000011D0D5F89000D5F8901020F4407041F43C
:101010008031C5F89010D5F8901021F48031C5F8D2
:101020009010C5F89000C00711D0FFF745FE0746A5
:1010300041F2883907E000BFFFF73EFEC11B49457A
:1010400001D9032652E7D5F890008007F4D5D5F8EA
:101050009000A16D20F440700843C5F8900045E76A
:10106000404505D10121201D01F032FC00B10646AA
:101070002068400317D5D5F88800E16C20F0406067
:101080000843C5F88800E06CB84204D1E86840F431
:101090008010E86007E0404505D10121201D01F0E6
:1010A00017FC00B106462088400411D5D5F8880009
:1010B000216D20F040500843C5F88800206DB0F144
:1010C000805F05D10221201D01F002FC00B106461F
:1010D0002088000406D555F8880F616D20F0804007
:1010E00008432860304600F005B8000000100240B8
:1010F0000070004018BCBDE8E08F00002DE9F0470B
:101100000F46050058D0404E306800F00700B84246
:1011100009D2306820F0070038433060306800F0B2
:101120000700B84248D12878384CC0072CD06868EE
:10113000032811D0022812D0216898B1490500294E
:101140003ADAA16821F003010143A160FFF7B4FD81
:10115000804641F2883910E021688901EFE7216873
:101160008903ECE78907EAE7FFF7A6FDA0EB080192
:10117000494502D90320BDE8F087A068696800F0FE
:101180000C00B0EB810FEFD12878800705D5A0685F
:10119000A96820F0F0000843A060306800F0070064
:1011A000B8420BD9306820F007003843306030680F
:1011B00000F00700B84201D00120DCE728784007A2
:1011C00005D5A068E96820F4E0600843A0602878AD
:1011D000000706D5A068296920F4605040EAC100E4
:1011E000A06000F03FF8A168094AC1F30311515C07
:1011F00001F01F01C8400749086007480068BDE8C2
:10120000F047FFF777BD00000020024000100240C9
:1012100054D1030834000020280000200548064966
:1012200000688968054AC1F30221515C01F01F0181
:10123000C8407047340000200010024094D10308D9
:101240000548064900688968054AC1F3C221515C16
:1012500001F01F01C8407047340000200010024018
:1012600094D1030870B52549002318468A68CC68D4
:1012700012F00C0204F00306214C4FEA640509D079
:101280000C2A05D0042A32D0082A00D1284670BD85
:10129000012E10D10B681B0704D4D1F89430C3F38E
:1012A000032302E00B68C3F30313164E56F82330F2
:1012B000DAB10C2AEBD1C86800F00300022818D07C
:1012C000032818D01846CA68CB68C2F30212C3F3C9
:1012D00006234343521CB3FBF2F2C868C0F34160DB
:1012E000401C4000B2FBF0F070BD184670BD2046B7
:1012F00070BD2046E7E72846E5E700000010024001
:101300000024F40064D103082DE9F84304006FD0F1
:10131000FE4DA86800F00C06E86800F0030720788E
:10132000C00664D576B10C2E01D1012F0AD0A06978
:10133000002828687AD040F001002860FFF7BCFC44
:1013400080465DE02868800702D5A0690028DED0CD
:10135000216A2868000703D5286800F0F00004E03F
:10136000D5F89400F02202EA1010814216D90846FE
:1013700001F044FB00283BD1286840F008002860B9
:101380002868216A20F0F000084328606868E16955
:1013900020F47F4040EA0120686016E0286840F0B1
:1013A000080028602868216A20F0F00008432860BF
:1013B0006868E16920F47F4040EA0120686026B94E
:1013C000206A01F01BFB0028D5D1FFF74BFFA9686D
:1013D000CF4AC1F30311515C01F01F01C840CD4950
:1013E0000860CD480068FFF785FC00287ED12EE01C
:1013F000CAE000BFFFF760FCA0EB0800022876D827
:1014000028688007F6D5286840F00800286028681A
:10141000216A20F0F000084328606868E16920F440
:101420007F4040EA0120686011E0FFE720F0010002
:101430002860FFF741FC804606E000BFFFF73CFC58
:10144000A0EB08000228DAD828688007F6D42078B4
:10145000C00740D0082E18D00C2E01D1032F14D075
:101460006068B0F5803F17D0B0F5A02F286817D07E
:1014700020F480302860286820F48020286060688C
:10148000E0B1FFF719FC804614E02868800322D5FC
:101490006068002878D01EE0286840F48030EDE7CE
:1014A00040F480202860F7E7FFF706FCA0EB080077
:1014B0006428A4D828688003F6D50CE0FFF7FCFB6D
:1014C000804605E0FFF7F8FBA0EB0800642896D8FB
:1014D00028688003F6D4207880073BD5042E11D0ED
:1014E0000C2E01D1022F0DD0E06801E0B6E1FFE043
:1014F000002828681ED040F480702860FFF7DCFBCD
:1015000007460CE0286840050CD5E0680028C1D0EB
:1015100008E000BFFFF7D0FBC01B022893D8286863
:101520004005F7D56868217C20F0F85040EA01605A
:1015300068600FE020F480702860FFF7BDFB07466D
:1015400005E000BFFFF7B8FBC01B0228B1D8286830
:101550004005F7D42078000729D560690028D5F820
:10156000940012D040F00100C5F89400FFF7A4FBEE
:10157000074604E0FFF7A0FBC01B022899D8D5F866
:1015800094008007F6D512E02BE120F00100C5F8A9
:101590009400FFF791FB074605E000BFFFF78CFBC7
:1015A000C01B022885D8D5F894008007F6D420788F
:1015B000400766D5A86D0027C00008D4A86D40F08C
:1015C0008050A865A86D012700F080500090534816
:1015D0000168C90512D40168814641F48071016037
:1015E000FFF76AFB804605E0FFF766FBA0EB08000B
:1015F00002287DD8D9F80000C005F5D5A0680128DB
:1016000016D00528D5F8900017D020F00100C5F8B5
:101610009000D5F8900020F0040000BFC5F89000BD
:10162000A06841F28839C0B1FFF746FB80460FE061
:10163000D5F8900040F00100F0E740F00400C5F854
:101640009000F5E7FFF738FBA0EB080149454FD8BC
:10165000D5F890008007F5D50EE0FFF72DFB80460A
:1016600006E000BFFFF728FBA0EB080149453FD883
:10167000D5F890008007F5D41FB1A86D20F08050F8
:10168000A8652078800628D5606A0028D5F89800DB
:1016900012D040F00100C5F89800FFF70DFB074697
:1016A00005E000BFFFF708FBC01B022820D8D5F8D3
:1016B00098008007F6D510E020F00100C5F89800EA
:1016C000FFF7FAFA074604E0FFF7F6FAC01B022814
:1016D0000ED8D5F898008007F6D4A06AA8B10228E1
:1016E00024D00C2E7DD0286820F08070286000E087
:1016F000B3E02868000103D4E86820F00300E86044
:10170000E86807490840E8600CE09FE000100240EC
:1017100054D103083400002028000020007000404D
:10172000FFFFEEFEFFF7C8FA044699E0E868E26AB8
:1017300000F00301914226D1216B00F070020901F3
:10174000103991421FD1626B00F4FE41B1EB022FC0
:1017500019D194F8382000F07841B1EBC26F12D162
:10176000A18F00F4C00249084905A1F5001191427A
:1017700009D194F8401000F0C06049084906A1F171
:10178000007181424BD00C2E6FD0286840016CD480
:10179000286820F080702860FFF78EFA064604E083
:1017A000FFF78AFA801B022857D828688001F7D4EF
:1017B000F4E90B016FF00F0202EB01110843218ADB
:1017C0005204490802EB4151A26841EA0221084350
:1017D000217D4FF07E42490802EB41610843217BA5
:1017E00000E042E040EAC160E968214A1140084354
:1017F000E860286840F080702860E86840F08070F9
:10180000E860FFF759FA044605E000BFFFF754FA15
:10181000001B022821D828688001F7D523E028681A
:10182000800120D4286840F080702860E86840F08B
:101830008070E860FFF740FA044604E0FFF73CFAE6
:10184000001B022809D828688001F7D50BE000BFEB
:10185000FFF732FA001B022802D90320BDE8F88303
:1018600028688001F4D40020F8E70120F6E70000A2
:101870008C809D012DE9F041040005D00025A56272
:1018800094F85D0018B107E00120BDE8F08184F80C
:101890005C50204600F044F8022384F85D30206854
:1018A000016821F040010160E0684FF4E066B04259
:1018B00001D9002101E04FF48051B0F5706F02D0E2
:1018C000B04200D0A562276B012227B9B04201D9EE
:1018D000236300E02263D4E901031843D4E904360A
:1018E00033431843238B03F400731843E36918430D
:1018F000236A1843A36A184323681860636B606AFD
:10190000A66918430427E36807EA164633431843D9
:10191000084321684860256684F85D200020B4E70C
:10192000F0B587B0044614216846FEF798FC1849C4
:10193000206888422AD11748816D41F48041816531
:10194000816D01F480410591C16C41F00401C164D5
:10195000C16C01F004010591C16C41F00201C16448
:10196000C06C022400F00200059008200025032628
:1019700005278DE8F10069460748FFF7B9F820030D
:101980008DE8F10069460548FFF7B2F807B0F0BDF1
:1019900000380040001002400008004800040048E1
:1019A00010B5401EB0F1807F01D3012010BD4FF073
:1019B000E02460610F21601701F082FC0020A0612B
:1019C00007202061002010BD30B590F83C20012A8E
:1019D00037D0012280F83C20CA688C6822F440721B
:1019E00022434C6822F4806222430C6822F4006295
:1019F00022430C6922F4805222434C6922F40052A3
:101A000022438C6A22F4804222430C8B22F47022FF
:101A100042EA04420C4D04680023AC420CD18D8C88
:101A200022F4700242EA0552CD6922F080722A4304
:101A3000096A22F000720A43626480F83C30002098
:101A400030BD022030BD0000002C014010B5040064
:101A500003D094F83D0010B107E0012010BD002034
:101A600084F83C00204600F00DF8022084F83D0088
:101A7000211D206801F086F8012084F83D00002037
:101A800010BD000008B500680649884208D1064824
:101A9000016E41F400310166006E00F400300090E8
:101AA00008BD0000004401400010024010B586B09F
:101AB000044614216846FEF7D2FB0E49206888428E
:101AC00016D10D48C16C41F00201C164C06C694679
:101AD00000F0020005904FF4807000900220019009
:101AE0000020029003900E2004900448FFF700F8B5
:101AF00006B010BD00440140001002400004004840
:101B000070B5044690F83C000D4601280ED0012621
:101B100084F83C60022084F83D000C2A45D007DCA4
:101B20005AB1042A1BD0082A78D12CE0022070BDBB
:101B3000102A4ED0142A71D15DE0206801F066F8B9
:101B40002068816941F0080181612068816921F084
:101B500004018161206881692A69114311E02068CC
:101B600001F090F82068816941F40061816120688A
:101B7000816921F480618161206881692A6941EA73
:101B8000022181614AE0206801F0B8F82068C1694B
:101B900041F00801C1612068C16921F00401C161FF
:101BA0002068C1692A69114311E0206801F0E0F85A
:101BB0002068C16941F40061C1612068C16921F4F4
:101BC0008061C1612068C1692A6941EA0221C1615D
:101BD00024E0206801F0FCF82068416D41F0080124
:101BE00041652068416D21F0040141652068416D27
:101BF0002A69114311E0206801F018F92068416D4D
:101C000041F4006141652068416D21F480614165C6
:101C10002068416D2A6941EA0221416584F83D60EE
:101C2000002084F83C0070BD10B5040003D094F887
:101C30003D0010B107E0012010BD002084F83C00F9
:101C4000204600F00CF8022084F83D00211D206899
:101C500000F098FF012084F83D00002010BD70477F
:101C600010B504460068012200F0C2FF0E4821684A
:101C7000814205D00D48814202D00D48814203D1F6
:101C8000486C40F40040486420688168094A11406B
:101C9000062906D0B1F5803F03D0016841F001016B
:101CA0000160002010BD0000002C014000400140F8
:101CB000004401400700010010B5044600680022FE
:101CC00000F096FF134841F21112216893108142EF
:101CD00005D01148814202D01048814209D1086ADA
:101CE000104206D1086A184203D1486C20F4004023
:101CF00048642068016A114206D1016A194203D181
:101D0000016821F001010160012084F83D000020FC
:101D100010BD0000002C0140004001400044014083
:101D200010B5040002D0606F10B107E0012010BDB3
:101D3000002084F87000204600F026F82420606718
:101D40002068016821F001010160204601F02CF9B2
:101D50000128ECD0606A10B1204601F095F82068A7
:101D6000416821F4904141602068816821F02A0196
:101D700081602068016841F0010101602046BDE8F2
:101D8000104001F0E5B8000010B586B004461421FB
:101D90006846FEF764FA13492068884220D1124849
:101DA000016E41F480410166016E01F480410591AC
:101DB000C16C41F00101C164C06C694600F00100D2
:101DC00005904FF4C0600090022001900020029026
:101DD00003200390072004904FF09040FEF788FE08
:101DE00006B010BD0038014000100240FEE72DE9AA
:101DF000F04107461C4615460E462A2000F07AFBA5
:101E0000380A00F085FBF8B200F082FB280A00F0E7
:101E10007FFBE8B200F07CFB2B2000F06BFB300A6C
:101E200000F076FBF0B200F073FB200A00F070FBCC
:101E3000E0B200F06DFBBDE8F0412C2000F05ABB91
:101E400070B5040AC5B2EF2300211A460846FFF711
:101E5000CEFF0F4900204FF4107200BF01F8104070
:101E600001EB4003401C80B25D709042F6D301222A
:101E700040210848FEF71BFF00244FF490652946D7
:101E8000034800F05DFA641CA4B2642CF7D370BD63
:101E9000C00100200008004810B514460B46024659
:101EA000FFF7A5FF2046BDE8104000F03FBB000053
:101EB00010B50B460246FFF79AFF03480088BDE8BD
:101EC000104000F033BB00000400002070B5764DD8
:101ED0004FF40044002221462846FEF7E8FE734EE8
:101EE000002280213046FEF7E2FE0C20FEF7EEFDD8
:101EF000012280213046FEF7DAFE6D4B1A68106829
:101F000040F4804010601868016841F040010160B1
:101F10000C20FEF7DBFD112000F0ECFA0C20FEF7A0
:101F2000D5FD362000F0E6FA002000F0F1FA3A2064
:101F300000F0E0FA652000F0EBFAB22000F0DAFAE7
:101F40000C2000F0E5FA0C2000F0E2FA002000F08E
:101F5000DFFA332000F0DCFA332000F0D9FAB720A2
:101F600000F0C8FA722000F0D3FABB2000F0C2FAE9
:101F70003D2000F0CDFAC02000F0BCFA2C2000F08B
:101F8000C7FAC22000F0B6FA012000F0C1FAC3205F
:101F900000F0B0FA192000F0BBFAC42000F0AAFA51
:101FA000202000F0B5FAC62000F0A4FA012000F0CD
:101FB000AFFAD02000F09EFAA42000F0A9FAA120E8
:101FC00000F0A6FAE02000F095FAD02000F0A0FA88
:101FD000042000F09DFA0D2000F09AFA112000F084
:101FE00097FA132000F094FA2B2000F091FA3F208A
:101FF00000F08EFA542000F08BFA4C2000F088FAA2
:10200000182000F085FA0D2000F082FA0B2000F075
:102010007FFA1F2000F07CFA232000F079FAE120FB
:1020200000F068FAD02000F073FA042000F070FA93
:102030000C2000F06DFA112000F06AFA132000F075
:1020400067FA2C2000F064FA3F2000F061FA442087
:1020500000F05EFA512000F05BFA2F2000F058FAF1
:102060001F2000F055FA1F2000F052FA202000F047
:102070004FFA232000F04CFA212000F03BFA2920EF
:1020800000F038FAEF2300211A460846FFF7AFFEAA
:102090004FF6FF70FFF7D4FE21462846BDE870409A
:1020A0000122FEF704BE00000004004800080048BA
:1020B0009C0000202DE9F047170A054602F0FF08B2
:1020C000F02952D3DFF8A8A0DFF8A890332400BF8E
:1020D00005EB440635F814007188A2B281421FFA5C
:1020E00084FC20D30B4601466046FFF780FE0122A8
:1020F00040215046FEF7DBFD35F8141048460EE04F
:102100000268177302689368DB439B07FBD482F86D
:102110000C8002689368DB439B07FBD4491C7288E0
:102120008A42EDD21EE003466046FFF760FE0122C0
:1021300040215046FEF7BBFD718848460EE002681C
:10214000177302689368DB439B07FBD482F80C800B
:1021500002689368DB439B07FBD4491C35F81420C5
:102160008A42ECD2641CEF2CB2D3BDE8F0870000A9
:10217000000800489C0000202DE9F0472DED028B5F
:1021800096B08A46064617469FED628A142102A839
:10219000FEF765F8142107A8FEF761F814210CA8D2
:1021A000FEF75DF8142111A8FEF759F832244FF418
:1021B00078452A46EF212046FFF76EFE641CE4B204
:1021C000F02CF6D31E242A4621463220FFF764FE67
:1021D000641CE4B2F02CF6D30020014606E000BFF8
:1021E00036F81120824200D91046491CB942F7D373
:1021F00080463488002005E036F81010A14200D255
:102200000C46401CB842F7D3B6F8DE2142A102A822
:1022100001F042F8424640A107A801F03DF82246ED
:102220003DA10CA801F038F8A8EB040291463AA1B0
:1022300011A801F031F8102539A0CDE900502B4646
:10224000F0222821052000F02EF902A8CDE9005047
:102250001023F0223C21052000F025F932A0CDE921
:1022600000501023F0225A21052000F01CF907A885
:10227000CDE900501023F0226E21052000F013F963
:102280002BA0CDE900501023F0228C21052000F076
:102290000AF90CA8CDE900501023F022A021052056
:1022A00000F001F924A0CDE900501023F022BE2156
:1022B000052000F0F8F811A8CDE900501023F02215
:1022C000D221052000F0EFF844451DD800EE109A09
:1022D000F02FF8EEC00A80EE880A15D35FF00000F8
:1022E00036F81010091B00EE901AF8EEE00A80EEA6
:1022F000801AFCEEC10A10EE901AC1F1EF012AF823
:102300001010401CF028EBD316B0BDEC028BBDE8DA
:10231000F0870000000052432530346400000000C4
:1023200072656C3A000000006D61783A00000000B0
:102330006D696E3A000000007375623A000000009B
:1023400030B50022064B08E01D68845C2C731C68C5
:10235000A568ED43AD07FBD4521C8A42F4DB30BDC7
:102360009C0000202DE9F05F203AD7B21C46F022F5
:10237000A2EB540282425BD3C4F1F0028A4257DBE3
:102380000A19521E93B200EB5402521E92B2FFF78A
:102390002EFD3F4E102C1AD0202C18D00C2C49D0DA
:1023A000182C45D13B4907EB47004FF0300A002479
:1023B00001EB00194FEA060819F80460E00756D04F
:1023C00004270025300654D5B8F8000053E0600714
:1023D00000D0012000EBD400610810FB01F000F0F8
:1023E000FF082D48002500EB071A00F5BE5000EB52
:1023F000C71BB1461AE0102C09D0202C18D11BF8AD
:1024000005600027300605D5B9F8000004E01AF889
:102410000560F6E7B9F8020000F088F870067F1C46
:10242000060EFFB2082FEDD36D1CEDB24545E2D389
:1024300000F036B8194807EB47014FF00C090024AB
:1024400000EB8108002518F80470380601D53088A3
:1024500000E0708800F06AF878066D1C070EEDB297
:10246000062DF2D3641CE4B24C45EBD3E0E7082719
:10247000A7E7B8F8020000F059F870066D1C060EC8
:10248000EDB2BD429ED3641CE4B2544594D3CFE771
:102490000400002004900308148A0308A0850308A0
:1024A00030BCBDE8C09F2DE9F047044600F0FF09AD
:1024B00010190D46DDE908A61FFA80F8581987B2F1
:1024C00010E0444503D305EB0A004C4685B2BD42FB
:1024D0000DD2534629462046FFF744FF04EB5A002D
:1024E00084B2761C3278A2F120005E28E9D9BDE8DA
:1024F000F087000001B5002240210448FEF7D7FB19
:1025000001216846FFF71CFF08BD000000080048D5
:1025100001B5012240210448FEF7C9FB01216846AC
:10252000FFF70EFF08BD00000008004808B50021B5
:102530000091010A8DF800108DF801000122402160
:102540000348FEF7B4FB02216846FFF7F9FE08BD19
:102550000008004800EB8100006E00F0F840704772
:102560008068C0F3C00070478068C0F38000704787
:10257000C06810F4406F01D0002070470120704700
:10258000042303EAD15310B518444369C1F304513D
:1025900007248C40A3438A401343436110BD00EBE2
:1025A0008100016E21F00041114301667047000077
:1025B00030B587B018216846FDF751FE1948184913
:1025C0000024C0E9001484600425C460C0E9044507
:1025D000047644760121C16180F82040C0E90914E5
:1025E000C46280F83040446380F83840FEF7D2F887
:1025F00008B1FDF7BDFE0C480090062001900720B1
:1026000002907F200594CDE9030569460548FDF752
:10261000C5FE002801D0FDF7ABFE07B030BD0000BD
:1026200000000450380000200800900C2DE9F0470D
:1026300086B014216846FDF712FE2A48C16C41F0AD
:102640008001C164C16C01F080010591C16C41F051
:102650000401C164C16C01F004010591C16C41F039
:102660000101C164C16C01F001010591C16C41F02F
:102670000201C164C06C4FF0904800F00200059068
:10268000002201214046FEF712FB0122DFF858909C
:10269000D70339464846FEF70AFBDFF850A0002270
:1026A000C0215046FEF703FB012401AA00250326A2
:1026B000009482E8700069464046FEF719FA01AAC4
:1026C000009782E8700069464846FEF711FAC0207C
:1026D0008DE8710069465046FEF70AFA06B0BDE87B
:1026E000F087000000100240000400480008004885
:1026F000124810B5104901604FF482714160002109
:102700004FF4E062C0E9021202220261012242613A
:102710005202C0E90621016207224162C0E90A12A1
:1027200001634163FFF7A6F8002803D0BDE810401D
:10273000FDF71EBE10BD0000003800409C000020C8
:1027400010B592B01C210BA8FDF789FD2C2168461D
:10275000FDF785FD20481F49002401604F21C0E995
:10276000011440F2E731C0E9031444618461FFF7CA
:102770006DF908B1FDF7FCFD1748FFF755FA08B1F0
:10278000FDF7F6FD60200B9040F2F310CDE90C044C
:102790000E940F94109400220BA90F481194FFF788
:1027A000AFF908B1FDF7E4FD00944FF40050CDE916
:1027B0000440019402940394694607480A94FFF781
:1027C00003F908B1FDF7D4FD0348FFF76FF912B024
:1027D00010BD000000440140000100200D4810B56C
:1027E0000B4901604FF4E1314160002181600C220E
:1027F000C160C0E904128161C16101624162FFF7F9
:102800008FFA002803D0BDE81040FDF7B1BD10BD20
:102810000038014040010020FEE77047704700008B
:102820002DE9FF4F89B08846824611466846FDF77C
:10283000A1FD00254FEA0D0B0BEB45001BF8151011
:102840004FF6FF72467802EA01210E43DFF84C9002
:1028500000240AEB050700BFC4F10F0026FA00F0C0
:10286000C00706D008EB0400B9B280B2FFF720FB26
:1028700009E00C9838B908EB0400B9B280B2B9F895
:102880000220FFF709FB641CE4B2102CE4D36D1C9A
:10289000EDB2102DD0D30DB000F002B8040000202E
:1028A00030BCBDE8C08F2DE9F0411F4615460E46ED
:1028B000044608E03B462A4621463046FFF7B0FF73
:1028C0001034A4B2AD1C28780028F3D1BDE8F08103
:1028D0002DE9F041444C05468846E0680026810712
:1028E00028680DD0E16801F00301814216D1A8B13A
:1028F000E0686968C0F30210401C88420ED120E0F5
:10290000012804D0022805D0032807D108E0216857
:10291000890701E021684905002907DB01265FE0FE
:102920002168890302D421684903F5E7E1686A68F0
:102930006FF00F0321F0730103EB02121143014307
:10294000E160206820F080602060FEF7B5F907465E
:1029500005E000BFFEF7B0F9C01B022837D8206899
:102960000001F7D4B8F1000F18D0B8F1010F1DD055
:10297000287D4FF07E41400801EB4060A96840EAA5
:1029800001202169194A114008432061206840F064
:1029900080602060FEF790F907461AE0A868297B5E
:1029A000000240EAC1602169114AECE7288A114916
:1029B000400801EB4050A96840EA012021690E4A15
:1029C000E1E700BFFEF778F9C01B022801D9032612
:1029D00006E020680001F5D52069A9690843206157
:1029E0003046BDE8F081000000100240FF80FFF992
:1029F000FF80FF070000E0FFFF809FFFF8B51C4D40
:102A000006460024A86DC00002D5FEF711FA0DE0BD
:102A1000A86D40F08050A865A86D00F0805000902F
:102A2000FEF706FAA96D21F08051A965B0F5007F87
:102A300004D0802E07D94FF003040AE0802E08D975
:102A4000A02E01D804E001D1022402E0702E00D1B2
:102A500001240848016821F0070121430160006852
:102A600000F00700A04201D00120F8BD0020F8BD11
:102A700000100240002002407047000010B5084CD2
:102A8000216841B9206040B18268002190472068E8
:102A90000021C2689047002010BD4FF0FF3010BDEC
:102AA0000800002002480168491C0160FEF70AB9CD
:102AB000000000202DE9F041AEB0442117A8FDF739
:102AC000CEFB142128A8FDF7CAFB5C216846FDF760
:102AD000C6FB01263004CDE9176002240327CDE9A7
:102AE00021474FF00708CDE9258414202794CDE92C
:102AF000236017A8FEF708FC0F2028900025CDE9D9
:102B000029752B95042128A82C95FEF7F7FA44F295
:102B1000010000900007149008950820CDE902609C
:102B200001974005CDE90640CDE904846846FEF7EB
:102B300087F92002FEF748F92EB0BDE8F0810000C9
:102B40000D48016841F4700101600C48016841F0D2
:102B500001010160002181600268094B1A40026096
:102B60008214C260026822F48022026081610249FC
:102B7000C00380390860704788ED00E00010024013
:102B8000FFFFF6EA70B50268164B4FF08046984298
:102B900001D0B04203D122F070044A682243124CA3
:102BA000124D984205D0B04203D0A04201D0A842B5
:102BB00003D122F44076CA6832434E6922F0800283
:102BC000324302608A68C2620A688262984203D015
:102BD000A04201D0A84201D10969016301214161EC
:102BE00070BD0000002C0140004001400044014045
:102BF00010B501F01F030121046A99408C4304625F
:102C0000016A9A401143016210BD0000F0B5026AEA
:102C100022F001020262056A43688269154C25F0C0
:102C2000020522400C6822F0030214438A68134E06
:102C30002A43114D124FA84203D0B04201D0B842EE
:102C400006D122F0080CCA6842EA0C0222F0040203
:102C5000A84203D0B04201D0B84205D14D6923F457
:102C600040731D438B692B43436084614968416312
:102C70000262F0BD8FFFFEFF002C014000400140CA
:102C80000044014030B5026A22F010020262046A78
:102C900042688369154D2B400D6823F4407343EA65
:102CA000052524F020038C6843EA0413104CA0424D
:102CB00007D1CC6823F0800343EA041323F04003D8
:102CC00005E00C4CA04202D00B4CA04207D14C694D
:102CD00022F4406242EA84028C6942EA8402426041
:102CE000856149688163036230BD0000FF8FFFFE8C
:102CF000002C0140004001400044014030B5026A10
:102D000022F480720262046A4268C369144D2B4047
:102D10000D6823F003031D4324F400738C6843EA19
:102D20000423104CA04207D1CC6823F4006343EA8B
:102D3000042323F4806305E00B4CA04202D00B4C2B
:102D4000A04207D14C6922F4405242EA04128C6935
:102D500042EA04124260C5614968C163036230BD42
:102D60008FFFFEFF002C0140004001400044014065
:102D700030B5026A22F480520262046A4268C36972
:102D80000F4D24F400542B400D6823F4407343EAA4
:102D900005238D6844EA05340A4DA84205D00A4D42
:102DA000A84202D0094DA84204D14D6922F48042C4
:102DB00042EA85124260C36149680164046230BD21
:102DC000FF8FFFFE002C0140004001400044014005
:102DD00030B5026A22F480320262046A4268436DAE
:102DE0000E4D2B400D681D4324F400330C8943EA3B
:102DF00004430B4CA04205D00A4CA04202D00A4C1E
:102E0000A04204D14C6922F4803242EA042242609A
:102E1000456549688165036230BD00008FFFFEFF94
:102E2000002C0140004001400044014030B5026ADE
:102E300022F480120262046A4268436D0E4D24F44B
:102E400000142B400D6843EA05230D8944EA05541C
:102E50000A4DA84205D00A4DA84202D0094DA84209
:102E600004D14D6922F4802242EA85224260436502
:102E70004968C165046230BDFF8FFFFE002C014030
:102E8000004001400044014090F82410C90706D0DA
:102E900001684A68836A22F400321A434A6090F853
:102EA0002410890706D501684A68C36A22F4803273
:102EB0001A434A6090F82410490706D501684A6809
:102EC000036B22F480221A434A6090F82410090709
:102ED00006D501684A68436B22F400421A434A60EF
:102EE00090F82410C90606D501688A68836B22F41D
:102EF00080521A438A6090F82410890606D501682A
:102F00008A68C36B22F400521A438A6090F8241036
:102F1000490611D501684A68036C22F480121A43ED
:102F20004A60016CB1F5801F06D101684A68436CA4
:102F300022F4C0021A434A6090F82410090606D50C
:102F400001684A68806C22F4002202434A6070479C
:102F5000F8B500260446C667FDF7AEFE05462068B4
:102F600000686FF07E47000708D52B4600224FF41B
:102F700000112046009700F03BF960B92068006816
:102F800040070AD52B4600224FF4800120460097C7
:102F900000F02EF908B10320F8BD20206067A0677B
:102FA00084F870600020F8BD2DE9F0410446016806
:102FB00080682369E5691843636900272B43184338
:102FC000814A0B68814D2B4003430B6020684168A8
:102FD000E36821F44051194341602168A06991429E
:102FE00001D0236A18438B6823F4306303438B605A
:102FF000774B2168774899420DD1D0F8880010F0BE
:10300000030006D0012847D0022843D0032830D13E
:1030100044E001252EE0704B99420BD1D0F8880096
:1030200010F00C0034D0042836D0082832D00C28F8
:103030001FD133E0694B99420BD1D0F8880010F0D2
:10304000300025D0102827D0202823D0302810D1B8
:1030500024E091420DD1D0F8880010F4406017D0E0
:10306000B0F5806F18D0B0F5006F13D0B0F5406F99
:1030700014D010255A4B00264FF40040914245D100
:1030800075B1022D0FD0042D0FD0082D18D10FE0EF
:103090000025EFE70225EDE70425EBE70825E9E742
:1030A000FEF7BCF803E0184602E0FEF7DBF8A8B331
:1030B000626802EB4201814202D8B0EB023F01D9C3
:1030C00001276EE0DFF81C815DB1022D0CD0042DCC
:1030D00013D0082DF4D150082905401846F10001FD
:1030E00005E0FEF79BF80AE050083F49F5E70023AA
:1030F000FDF768F8A0F540714FE0FEF7B3F862689D
:10310000010E0302500818187141F0E7E1694FF60B
:10311000EF7881422ED1092DD2D200E041E0DFE8E4
:1031200005F006091F05220505052500C8E7FEF77D
:1031300075F801E0FEF784F84100606801EB50018A
:10314000B1FBF0F080B2A0F110014145B8D84FF6C4
:10315000F0710140C0F3420001432068C16020E0EB
:1031600022496068EAE7FEF77DF8E5E74FF4803131
:103170006068E3E7092DA3D2DFE805F0060918052A
:103180001E05050520009BE7FEF748F816E0FEF750
:1031900057F813E080B2A0F11001414590D82168A2
:1031A000C860266638466666BDE8F081606803EB55
:1031B0005001B1FBF0F0EDE7FEF754F8616800EB69
:1031C0005100B0FBF1F0E5E700800040F369FFEF4C
:1031D0000038014000100240004400400048004018
:1031E0000024F400FFFC0F00000024F40048E80174
:1031F0002DE9F0479A4617460E4604464FF000095F
:103200004FF02008089D39E0681C37D0FDF754FDC9
:10321000A0EB0A00A84222D80DB320680168490734
:103220002CD5C069C043000528D421684FF4006044
:1032300008622068016821F4D0710160206881680B
:1032400021F001018160C4F87480C4F87880C4F86A
:103250007C8000BF84F870900320BDE8F087206870
:10326000016821F4D07101602068816821F00101BA
:103270008160C4F87480C4F87880EBE72068C06986
:1032800036EA000004D00020B842BDD00020E4E7B8
:103290000120F9E7FEE700000FB4084B10B504A9C0
:1032A00002AA039800F02CF8044602A9002000F0BE
:1032B000CBF9204610BC5DF814FB0000493600082D
:1032C0000907090E002804DB00F1E02080F8001453
:1032D000704700F00F0000F1E02080F8141D7047E7
:1032E00002E008C8121F08C1002AFAD170477047CF
:1032F000002001E001C1121F002AFBD1704700002D
:103300002DE9FF4F8BB088460546002606E02528AC
:103310000BD0DDE90D1290476D1C761C2878002833
:10332000F5D10FB0304600F063B90024A146A246A3
:103330000122AE4900E0044315F8013F203B02FAA8
:1033400003F00842F7D128782A2810D06FF02F0216
:103350002878A0F13001092915D809EB890102EB81
:10336000410144F0020400EB01096D1CF0E758F83C
:10337000041B5FEA010903D544F40054C9F10009B4
:1033800044F002046D1C28782E2817D115F8010F7F
:1033900044F004042A280ED06FF02F022878A0F100
:1033A000300109290AD80AEB8A0102EB410100EB3E
:1033B000010A6D1CF2E758F804AB6D1C28786C28E4
:1033C0000FD006DC4C2817D068280DD06A2814D1FD
:1033D00004E0742810D07A280FD10DE044F40014D2
:1033E0000AE044F4801401E044F440146978814216
:1033F00002D104F580146D1C6D1C2878692865D0F5
:1034000006DC00288DD0632827D0642806D15DE033
:103410006E2808D073282AD0752877D0DDE90D12E0
:103420009047761CE0E0C4F30250022809D003283C
:103430000DD0D8F8001004280DD00E6008F1040853
:10344000D2E0D8F80010F217C1E90062F6E7D8F828
:1034500000100E80F2E70E70F0E718F8041B8DF8EC
:10346000001000208DF80100EB46012003E058F821
:1034700004BB4FF0FF3061074FF0000701D40AE0B2
:103480007F1C57450DDA8742FADB1BF8071000292D
:10349000F6D106E07F1C8742FCDB1BF807100029F1
:1034A000F8D1DDE90D23A9EB07008146214600F0A4
:1034B000B4F83044C61904E0DDE90D121BF8010B25
:1034C00090477F1EF8D22146484688E058F8040B02
:1034D000C4F302514FF00A0B032900D100B20429B2
:1034E00000D140B2002802DA40422D2102E021053D
:1034F00005D52B218DF82410012104E006E0E10719
:1035000010D02021F6E708AF089113E058F8040B1B
:10351000C4F302514FF00A0B032900D180B20429F1
:1035200000D1C0B20021EEE75946FCF7A3FE3031CE
:1035300007F8011D0028F7D1ADEB070000F1200BC3
:10354000600702D524F4803401E04FF0010ADA4527
:1035500002DDAAEB0B0000E00020824600EB0B012D
:1035600008980144A9EB01000A90E00306D4DDE9C4
:103570000D2321460A9800F050F806444FF0000948
:1035800008E009A911F80900DDE90D12904709F1D9
:103590000109761C08998945F3DBE0030CD5DDE9C8
:1035A0000D2321460A9800F038F8064404E0DDE9CE
:1035B0000D1230209047761CBAF10001AAF1010AE1
:1035C000F5DC05E0DDE90D1217F8010B9047761CDC
:1035D000BBF10001ABF1010BF4DC0A982146DDE9F7
:1035E0000D2300F008F806446D1C97E60928010039
:1035F00030BCBDE8C08F2DE9F041044600251E46D1
:103600001746880404D405E039462020B0476D1CD5
:10361000641EF9D52846BDE8F0812DE9F041044645
:1036200000251E469046C80301D5302700E020271C
:10363000880404D505E041463846B0476D1C641E39
:10364000F9D52846BDE8F0810A68531C0B6010705C
:1036500070470000027961F341020271900704484B
:103660004FF0000101D5FEF7FBBAFEF725BB0000C5
:1036700000010020027961F300020271D1074FF0CE
:10368000904001D0012200E000220121FDF70FBB94
:103690000079C0F340007047007900F001007047E6
:1036A00010B504460548FDF7CDF932210348FDF772
:1036B00075F90248FDF76BF8206010BD3800002056
:1036C000FDF708FBFFF7F6F9FEF7B0FFFEF770FF16
:1036D000FFF70EF8FFF782F8FFF732F82948FFF7F7
:1036E000CDF9FEF7F3FB0020FEF7AAFB002326A28C
:1036F00019464620FFF7D7F8224D28462969884702
:10370000254C002180B200BF24F81100491CF0298B
:10371000FADB21494FF4F07601F570703246074626
:10372000FCF784FD1D48324639468046FCF77EFD95
:1037300029691448884701465FF0000004EB400205
:10374000528824F81020401CEE28F7DDA4F8DE1182
:103750000022F0214046FEF7ADFCF02239460E482B
:10376000FEF70AFD4FF4FC62F0213846FEF7A2FC9A
:10377000324639464046FCF759FD0A20FDF7A6F9C6
:10378000D6E700000C000020B4ABB8D0C6F7C7FAEB
:10379000CFDFCFD4CABE00004006002020080020A2
:1037A0000000F77E950495049674965495549554AC
:1037B0009554F55497740404040404040414040890
:1037C00000007BFE48085008600853E84A284A2851
:1037D0004A286BE85008400840084008402840103C
:1037E00010401068108411FE1084FD0011FC12209E
:1037F000142013FE10201C50E0884106060400002F
:1038000010401040108811FCFC04108014FC19209A
:103810003020D7FE1020106010501088510E260462
:1038200001100110F9108FFE89108800891089108D
:1038300088A0F8A0884000A001100218040E080417
:1038400000800088F10493FE9104920093FC944060
:10385000F84097FE804000A001100208040E080402
:10386000010000807FFE00001FF0101010101FF0FC
:103870001210053808E0184068300A1E0C080800CD
:103880001040124422447A444BFC48004BF878081C
:1038900048084BF84A087A004A02420201FE00003A
:1038A000010000803FFE2000A3F8620823F82000FA
:1038B0006FBEA8A22FBE20402444444447FC840489
:1038C0000420FFFE042023F8120813F80208E3F88E
:1038D000240027FC2C4434A42D1437E420140008C1
:1038E000401C43E0782053FE507090A8FD261260E3
:1038F00010402BFE28904590407080D807040000AF
:1039000004400440FFFE0440044008200830042026
:10391000044002800100028004400830300EC004E0
:1039200001FCFD0411FC110421FC20007BFE680851
:10393000A8082BFE28082888384828482028001086
:1039400000F83F90121009203FFE220242003FFC87
:10395000040007F00C200B4010C063308C0E3004C4
:1039600002107910492057FE6000611051084A0486
:1039700048006FF855284528452845285FFE400037
:1039800028402820FFFE2904382010207C4055FEC6
:1039900054487C881050FE2010501188160C1004DA
:1039A00008000FFC10002FF800007FF8081004102A
:1039B0007FD040900810FFD0190A060A0D067082C9
:1039C000020001003FFE2004440806000400FFFE40
:1039D0000820082008400680010006C01838E010C2
:1039E0001080188017FC212032106488BFF62490C4
:1039F00027F02490249027F024822082207E00004B
:103A000010401020102013FEFE04104014401BFE36
:103A10003088D110119010601058118E560420007B
:103A2000004000207BFC4910489048A07FFE4800E1
:103A300049F8490879F84908010801F80108000027
:103A40000080108410841FFC00003FFE20002FFC2B
:103A5000208020803FFE2080208040808080008069
:103A6000004078204BFE4A044C8878C048804BFCCC
:103A700078884908489048604850488C6906920404
:103A8000020001003FFC220804407FFC0C80038000
:103A90001E6001207FFE03400D30710E0104010005
:103AA00000403C20242027FE3C0024F024903C9041
:103AB000249024902490249044925492890E0200E1
:103AC0001FF810081FF810081FF80000060038FC47
:103AD0002084208428843094208800800080008006
:103AE000010001001FF011101110FFFE02800440C0
:103AF00008303FFED294129012901290FFFE000008
:103B000000007C7C4444444444444444444447C40A
:103B100040044004400440047FFC40044004000092
:103B2000082008307F2008403E7E08C8FF48104823
:103B300010281E28121022102228424E8B840400C6
:103B400010407E6010447EFE1088FF8811503E3089
:103B5000243024585C8E89042888244466664222D6
:103B600010007DDC44447C4446647D541154FE4482
:103B700028CC45549264FE441044104411541088DB
:103B80004000307823C00040F840084013FC144047
:103B900038A056A0949011101108120612041400B7
:103BA00012101A1817D0221027BE6224AFE4241472
:103BB000241427882488249428942BA631440000B8
:103BC00002003FF82108292825483FF82388256866
:103BD000292801007FFE028004400830300EC00416
:103BE0002040208027FC2554B4E4AFF4A4C425640D
:103BF000265420402FFE204020A023102C0E200011
:103C00004080210027F806A885C857F814C825A8C1
:103C100026A82488DFFE40C041204610580E000030
:103C200004400440FFFE044004401FF01110111036
:103C300011101FF010001004100410060FFC0000FB
:103C4000200223C22242224AFA4A23CA290A310AFE
:103C500067CAA14A214A224222422442A94A4084F8
:103C60001000100010101090FC90109018903090E0
:103C7000D11011081108120812045406280400007B
:103C800000400060F94089408940894089208920AE
:103C90008A20FA108A10040804080806100420007C
:103CA0000000FBFE8A228A228A228A228BFE8A0256
:103CB000FA008A00820002000202020201FE0000F5
:103CC00020403F7E4850448885083FFC2084208463
:103CD00020843FFC20002002200220021FFE000062
:103CE00000000040046006400440044004400820F6
:103CF0000820101010102008400E80040000000062
:103D0000010000801FFE1000900057FC5444144432
:103D1000344457FC940024002402440243FE8000F3
:103D200000003FF821082108210821083FF8200859
:103D30002000200020002004200420061FFC00009A
:103D4000108010901088FC8013FE108014FC1888DE
:103D50003148D150113012201250148E5B042000D3
:103D600000407C504448444847FE7C4010FC10848E
:103D70005C8850C851505D207250C48C0906020402
:103D8000240024FCFEA424A43CA410A47CFC5480A5
:103D900054807C801080FE8210821082107E100081
:103DA000100011FC11241124FD24112415FC19000C
:103DB0003100D100110011001102110250FE20004B
:103DC000100010007DFC11247D2411241124FDFC21
:103DD00039003500570055009102110210FE100005
:103DE000100011FC110411241124FD2411241124AC
:103DF0001124112414501850E08840860104020058
:103E00003FF801007FFE695415280000247CFF4420
:103E1000247C7F44497C7F440844FF84089409083B
:103E20003FFC244424443FFC210401003FF80100EE
:103E30000100FFFE0200042008103FF810100000EF
:103E400004200810142C2244018002600C1E3FF450
:103E5000D11011101FF01000100410040FFC00000E
:103E60000200020004003FF8200820082008200873
:103E70003FF820082008200820083FF8200800000C
:103E8000102010201040FDFC1104310439043504C9
:103E900055FC5104910411041104110411FC110486
:103EA0000000FFFE030002001FF0101010101010A1
:103EB0001FF0101010101010101010101FF0101024
:103EC000100013FC1294FE94129413FC14401BFC7B
:103ED0003040D04017FE10801108120457FE200415
:103EE00010001BFE10403040208063FCA20422041E
:103EF00023FC22042204220423FC220422040000C6
:103F000000403E60224022802AFE2B882A882A8890
:103F10002A5008501420122023502288410E0204F7
:103F2000060078FE0810087C3E100810087C7F1000
:103F3000081008FE10101010201040108010001003
:103F40000C20704011FC1124FD2411FC392435444F
:103F500055FC50A0912017FE10201020102010209A
:103F60000000FA7E21102FD024902490FA90237C18
:103F700021102190229022903490C81030FE000031
:103F80000100F97E2110211021102510FD7E251041
:103F90002910211021103A10C21004FE0800100050
:103FA0002100223C27A4FCA426A42DA634C06FFE29
:103FB000A4A2269425942488289828A6B2C4410057
:103FC000200023FC22002200FA0023FC2B08328868
:103FD0006290A250222024602498290EB60440004A
:103FE000080010F83C88248834882C882506FE00B8
:103FF00025FC34882C90246024604490550E8A045B
:10400000100029FE2420244042FC4284BCA414A4B5
:1040100014A414A424A424A42450548C8B040000BD
:10402000101C11E011001100FD0011FC398435480D
:1040300055485230921012301448108E110400006E
:10404000001C49E0490049007F0041FC4188798813
:104050004950495049204A304A504488890E020448
:10406000104010401060FCA0111015081A0635F819
:10407000D0881088108811081108120854282010C0
:10408000104010401248FD4C115013FC18401040D5
:104090003040D7FE104010401040104050402040AB
:1040A000084008401448134C225077FCA0402040A0
:1040B00020402FFE20402040204020402040000093
:1040C000401020C8FB3E158455941594FD7E25486C
:1040D0002548757E2548252849A8491890080000DC
:1040E0000100211019180D20094001083FFC0100B2
:1040F000010001047FFE0100010001000100010038
:104100000200020002207FF0022002202230242838
:104110002424442688240820102020A040400000A9
:1041200010201020112420A420A849FCF0201020E9
:10413000202043FEF820002000201C20E02000204A
:104140000800087EFF44084808487E500848084494
:10415000FF42084208421052104C204040400040AC
:1041600004003FBE04243FA804287FA4043208AC06
:1041700010A02FF84888088808A8089000800080C0
:104180001100111E111217D2FD1411143BD835184D
:10419000511457D29112121A121414101810101030
:1041A0001040102013FCFC90106033FE3A44542061
:1041B00053FC9040107810881088110812281410B1
:1041C000004078204BFE488878504BFE4A444820F7
:1041D0007BFC488048F8488848884908A9289210FC
:1041E0001100111E27D221124914F11417D82114DD
:1041F0004112F7F20112011A3214C2100410081011
:104200002040204027FC2040FBF8208077FE6920DA
:10421000A258ADF6204027FC2040204020402040FE
:1042200000407C2013FC1108109023FE3E426420C5
:10423000A7FC248024F824883D0825082250042067
:104240001020102010207FFE5220522053FE7E208E
:10425000522053FE142012201F20F2204020002064
:10426000104010203DFC20884050BBFE124410201E
:10427000FDFE1040107810881488192812100000D4
:104280001080184017FC2210212467FEA4842848BF
:1042900027FC210021F821082208222824100000F0
:1042A0004080204037FC2108009007FEE884204031
:1042B00027FC208020F8210829083208242808102B
:1042C00004400440FFFE144010001FF8200820089E
:1042D0005F8810881F881028101210020FFE00003F
:1042E000008078C0490049FC7A044C0449E4492420
:1042F000792449E44904491C490A490248FE9800C6
:1043000008000C0008081FFC100820085FC890482F
:1043100010481FC810081028101210020FFE0000CD
:1043200001007FFE10001BF0321063F0A0402FFE52
:1043300020E023502D4C03100CA078600C1C0808C2
:1043400000047F0401043F240124FFA4042424A4C6
:1043500015240E241524E4A4448404041414080829
:104360000440FFFE0450444837FE204083F8724862
:1043700053F8124823F8E2483FFE21102110203064
:104380001FF801007FFE41041D7001001C70080031
:104390001FF820085F8810A81F9210020FFE00006F
:1043A00010001BF812082208320863F8A0402FFE04
:1043B00020E0216021502258244E28442040000053
:1043C00010001BF8120823F87040AFFE20E02150C7
:1043D000224E244401003FFC01000100FFFE0000CA
:1043E0001080108020803EFC25044A0451E4912472
:1043F000112411E4110C11001502190210FE000025
:10440000020001007FFE400480083FF80100010027
:1044100001001FF801400120013001207FFE000053
:1044200011001100110011FCFE04120417E41A24FB
:104430003224D3E4121412081202120251FE200098
:1044400011FC11041104FD141108150019FC31842C
:10445000D1481148113011101138114E51842100EA
:104460001FF010101FF010101FF004407FFC0440DC
:10447000FFFE04400920355EC384092011100300AB
:1044800008400C601040237ED48218822942CC223E
:1044900012322622CA0212022202C2021414080890
:1044A00020403C40244048FC7C84D5F456947C94C5
:1044B00054F454847C9400881C82E082007E0000C6
:1044C00023FC22042BFC2A04B3FCA090A7FCA090A0
:1044D0002FFE32482D5448E251508648014000805A
:1044E000100017FE1020FC201040304038C054D07F
:1044F0005148924414461042104010401040104061
:1045000000207E4011FC1124112421FC3D2465442F
:10451000A5FC24A0252027FE3C20242020200020CC
:10452000044004407C7C04403C7804407C7E044091
:1045300004400100088028842812681207F0000057
:10454000010002003FF821083FF8210821083FF848
:1045500022080C80FFFE0080008000800080008028
:104560000440044004400444044E7C580460044069
:10457000044004400C403442E4424442043E000003
:1045800004407C7C04403C7804407C7E0540020072
:104590007FFC04800FF800807FFE00800080008098
:1045A000048004987CE004841C84E47C40001FF0B8
:1045B00010101FF0101010101FF0101010501020CD
:1045C00000001FF010101010111011101110111018
:1045D00011101110111002800460181860080000FA
:1045E000200021FC3D04210441047D24A124212438
:1045F000FD24212421242450284831842606000249
:104600000880084017FE121031185190112017FE33
:10461000100013F812081208120813F8120800000C
:10462000040045FC29041124312449248924192437
:104630002924492489440850088C09065202240080
:1046400008000FF0082014202240418002400C3066
:10465000301EDFF411101FF0111011101FF0101098
:10466000040007F00C201240018006607FFE091054
:104670000FF009100FF001002884281267F20000E3
:104680001040102013FC100015045888505097FE5D
:10469000100011FC19042504210441FC81040000D0
:1046A000202010201020FFFE0A240A2012F836884D
:1046B0005A88965012501220125012481286150431
:1046C000020002007FFE0440092011182FE6C104F9
:1046D00009200820FFFE0820102010202020402064
:1046E00004200420FFFE042001007FFC038005401D
:1046F0000520091011082FF6410481000100010076
:10470000010001000100FFFE038003400540052079
:10471000091011182FEEC104010001000100000072
:1047200020403E7E50904908890801047FFE0540E4
:104730000520092011182FEE41048100010001001D
:10474000010021083FF800003E7822483E482278C8
:1047500022483E482278224842884AA88510000014
:10476000100013BC22A422A44BBCFAA412A422A4BD
:1047700043BCFAA404A434A4CAA4115420880000A1
:1047800000047FFE01800F60F11C01063FF8210844
:104790003FF821083FF821082108410841288010EE
:1047A000FFFE020004000FF03410C41007F00100F7
:1047B0007D0C05B0094009201118210EC504020026
:1047C00000207A224A224BFE48007B9E1292139EC2
:1047D0005E925292539E52927C92C4A20AAA1144B3
:1047E00042082188311027FC01100110F1101FFC34
:1047F00011101110121012101410281047FE800012
:10480000000027FC100013F8020803F8700017FCE2
:10481000144417FC144417FC1000280047FE000045
:1048200002001FF0189014501FF000003FF82108FC
:104830003FF821083FF80000FFFE08200820102064
:10484000208020802080208020803E8E20F02080CC
:10485000208020802080248228823082207E0000D8
:104860003F00213E21223F240824FFA808247FA2E4
:1048700040A25EA252B25EAC40A07FA040A0002049
:10488000204020403EFE51208A1001F87E000200A8
:1048900003F07E00020003FEFE000204020401FC9D
:1048A00010201820202043FE92241A2032F862881B
:1048B000A28822502250222022502488250E2A0429
:1048C00000207EFC08843CFC088408847EFC0000F8
:1048D0007FFE040008001FF8280848080FF80808A1
:1048E0000440FFFE044008003FF824482388244881
:1048F0003FF8208020983EE020802682387E2000ED
:104900000440FFFE0440086049302A207F7E49446D
:104910005DC45B286B28691049104D284A46008405
:1049200020802080208C3EF0208024822882317ECE
:1049300001000100FFFE0100010001000100010073
:10494000208020983EE020842684387C0000FFFEF2
:1049500010401F4C3270544008423042C03E0000AC
:10496000208020803E8C20F020822482287E32000D
:1049700001200920284428824B120C10F7F0000077
:1049800000FC7F00010001003FF8210821082108F8
:10499000210821082108212821100100010001001F
:1049A000010000803FFE2000244024402444274E84
:1049B000247024402440244045424E42843E00005E
:1049C000008000401FFE100097FC544457FC144424
:1049D00037FC50009FFE111021102110421084104E
:1049E00020001BFC08042084208420842FF42084D1
:1049F000218422842C8420842284210420142008F1
:104A00000000082049302B201C7E7F4449C45944B3
:104A10005D286F28491049104928494849864304B0
:104A2000082049202A7E7F4449A45D186B28494606
:104A300043040820FFFE082008201020102020201A
:104A400004000210019801100C200820285028486A
:104A5000288449064A040C0818082FF8C0000000F2
:104A600000407C2045FE440044847C48400041FED8
:104A70007C206420A5FEA420BC20A42000200020CF
:104A800000407C2045FE44887C5043FE7C2065FE2F
:104A90007C20A42001003FF801000100FFFE00007F
:104AA0003C2025FE3C8821FE7C20A5FE3C200020E9
:104AB0001FF010101FF010101FF0101010501020D9
:104AC00000204F10297C29480F280810E8FE2F10DD
:104AD0002D102D7C35102710201050008FFE000067
:104AE00002207A204A2C53B0522062A253224A1E3E
:104AF0004840684053FC4040404040404FFE40002A
:104B0000488048FEFE904910797C13547D7C5554B2
:104B10007D7C11101110FD5011301128114E11041F
:104B2000408020803080208007F80088F08810883E
:104B300011081108120814701020280047FE000008
:104B40001080184023FC22044A04FBFC120023FCC2
:104B50007B54035405FC3554C5540954110C000012
:104B600000007C3C45C054405430542055FC54084F
:104B7000541054205440288025804640843E000034
:104B8000010000801FFC10041FFC100010001FFE1D
:104B9000192229222FFE292249224922892A080482
:104BA00008000FFE184017FC344467FCA44424445A
:104BB00027FC24402240218020C02130220E2C04DA
:104BC000020001807FFE024012501A4C22464244ED
:104BD0009FF004200420024001800660181EE008B7
:104BE000020001800100FFFE010001000100014000
:104BF0000120011001180110010001000100010055
:104C000020901088FEFE008446C62AA8FE8012FE70
:104C100010907C90117E21102210421084100810F8
:104C200022101188FD7E40042B462934FD28117E78
:104C300011087D0811BE1108200820084008000056
:104C4000201010087D7E09044AA62B94FD3E120810
:104C50001788FC3E100811C8270822084008800861
:104C60000080404027F8240807F80400E7F826A849
:104C700027F82AA82AA832A8221850008FFE000080
:104C8000100011FC10001000FC0013FE382034202E
:104C900055285124922614221022102010A01040D2
:104CA00008040F86080C7F9848A04E48780C4910DD
:104CB000472440464F0849104922510290FEA00067
:104CC00000007BFE48904BFC7A944BFC480049FC6A
:104CD00078004BFE4820492849A44A26ACA49040BD
:104CE000010001003FFC01001FF801007FFE0300EE
:104CF00006880C8C3850C82009100A0E0C040800D5
:104D000049202A207F3E49485DC86B30492847C664
:104D100008803FF051101FF011101FF00000FFFE3F
:104D2000082049202A207F7E49445DA45B18691829
:104D300049264B44000029042882681207F000002D
:104D400000043F042124212421243F242924082471
:104D50007F2409241124110421042704421C800803
:104D600001003FFE2080A7F864482528248827F802
:104D70006488A16026183A6623804208420881F8B8
:104D800011041106110C11087BD0110433863B4C21
:104D9000555055649546110C111811201140110001
:104DA0000010201813D4FC1007FE08904A902A9097
:104DB0002AF0129012902A8A4AEA8706000200001E
:104DC0004200227E2A100BA08A7C5FC422542A54FF
:104DD0004AD452D4C154411042284C46718200003A
:104DE0004040202027FE8404403801C0110011FCFF
:104DF00021102110C7FE40004010410842044C041D
:104E0000010000803FFE40044FE8080008000FF852
:104E100008400840FFFE04400E301818200C4008DF
:104E20001040102013FEFE02123815C0190031FC8C
:104E3000D110111017FE11101108120C540420008B
:104E400000700F80080008000FFC08400840084070
:104E50000840FFFE042006100C08180C3006400421
:104E600000404040204020480F4C02582260226001
:104E70002450C45048484846504461404080000097
:104E8000100013FE1020FC20102033FE3A22562280
:104E900052229252128A130A12021212120A120497
:104EA00000007FFE010001003FFC210421042104D9
:104EB00022842244243428242004201420080000C2
:104EC00000103FF80100FFFE01003FF80108FFFE5F
:104ED00001083FF80388054009203118C10E01047C
:104EE0002104208420483DFE44884888A0882088EA
:104EF00023FE2088208824882908310822080008F9
:104F0000100013FE14201420582053FC52449244E5
:104F100012641A9426942304420442048214020860
:104F2000010000801FFE10009FFC5040504017F809
:104F3000344854A894A82518260824084428841026
:104F400010100818061004207FFC04200420042000
:104F50007FFE0420042004200820082010202020A8
:104F600000200020FC2011FE112211247D2011FCC4
:104F7000128812881A50F42044500888110E020436
:104F800004400440FFFE0440204017FE44443448DF
:104F900027F815101510E4A0244028B0290E32047B
:104FA000203C27C02248F95027FE20E02950324EED
:104FB0006FFCA248224823F822482248A3F842085E
:104FC000204022482244FA4023FE2040288030F826
:104FD000E08821502150222024502988A606400034
:104FE000202020203E20202043FC7C20A07020B0E8
:104FF000FCA8212821FC222228203020202000206B
:1050000020401040104007FE84445440544017F89C
:1050100025082490E490246028602898310E260406
:105020002050204827FC204023F8FA4823F8224843
:1050300023F822582FFE22102190211020502020EA
:10504000082008207F2008207F7C412482247E24A1
:1050500004240B241C44E844088408942908100004
:10506000104817FE1040FBFC124417FC1A4433FC96
:10507000D244100817FE110810881008502820107C
:105080001010101020203EFE40827C82908210FE84
:10509000FE82108210821282148218FE108200009A
:1050A00020403F7E485084882040108093FC42047A
:1050B0004A04120413FC2204E204220423FC220406
:1050C00008400C6008801BFC1204320432045204B5
:1050D00093FC120412041204120413FC12040000C4
:1050E000010002001FF810081FF810081FF811082F
:1050F00001003FFC210421042104211421080100A6
:10510000082010203E4022FC32842A84FE8422FCA7
:1051100032842E842A842284228442FC4A8484009D
:10512000002078204BFE48207BFE4A044C0049F8C2
:10513000781048204BFE482048204820A8A09040E6
:10514000002878244BFE482049FC792449FC492456
:1051500049FC792448104BFE49104910A850902072
:10516000421022102F900210823E5FD250522F9296
:1051700021124212C3A25E22422242424A4A44847F
:1051800040402040208083FC4A044A041204120458
:1051900023FCE204220422042204220423FC22042D
:1051A0000000FD1008A0486048984B0848007C08A3
:1051B000050804903450C4200450288E13040000C5
:1051C00010201028102413FEFC2013FE16221BFEB4
:1051D0003222D22213FE122212221222522A222418
:1051E00002000200020002000200030002C00230BE
:1051F000021802080200020002000200020002007F
:1052000000500048FFFE904097FC9444944497FC63
:105210009444F44497FC04440444045404480000B7
:10522000202018201020FE200420083012283424CA
:10523000582294221220102010201020102010201C
:105240002040208023F82208FA0823F8220023FCBB
:10525000220422043BFCE04047FE004000400040A6
:1052600000047FFE018001000100010003600530A1
:105270000918110C21084100010001000100000083
:10528000020003000200FFFE0480048008801FF873
:10529000288848888888088808A8089000800080A6
:1052A0000080008008F8088008807FFE0080088069
:1052B0000888108C6090002000C007007800000073
:1052C00020403F7E4890A52817FE104083FC4A44AA
:1052D000527C13C4224C2FFEE10820882028201085
:1052E0001000087E7F42224412441448FFD8004434
:1052F00000423F422142215A21443F402140004088
:105300002040204027FE3080A8A0A920A3FC222412
:1053100026242A243224222422342028202020203B
:105320002040202027FE2504F9D0226835902B0844
:1053300062F6A4002BFC20402250224CA544408061
:1053400048402BFC104033F848408FFE08001BF803
:105350002A084BF88A080BF80A081208522822106B
:10536000084008503F480840FFFC104008487F4C68
:10537000082815303230D2221152188A1104000048
:105380000000101010101010FDFE101038303430D6
:105390003450505050909110121010101050102096
:1053A00000400040004000407FFE00C0014001403E
:1053B000024004400840104060400040014000802E
:1053C00000087E0842084A084AFE4A184A184A2835
:1053D0004A284A480848148812082308422880109E
:1053E000003C7FC048844A444908795048404FFEF9
:1053F00078E048D0495049487A4C4A4644440040F5
:10540000001C7FE04484464445687D28104013FC1E
:105410005CE050E051505D487246C444004000409A
:10542000000001F87E000010111008A001007FFEAE
:105430000180034005200918310EC104010001005C
:105440000F00F808110C49902A2024440806FF8810
:1054500008141C261A04298849108860098008004D
:105460000440FFFE044004403FF8220811100820C9
:1054700001007FFE038005400930111C6108010016
:105480000440FFFE044010001EF822885450A8205B
:1054900017D82006DFF8010011201918250842004E
:1054A00008000F7C28483E305428094472C00D3053
:1054B0003FEECA2009200FE808900A600C3008105F
:1054C00004000C2011F03F100200FFFC04400920F2
:1054D0003218CC6E31840618186003807C000000FE
:1054E0003FFC01000100FFFE024004200910310EC4
:1054F000DFF411101FF01110010801FC7E080000FC
:1055000000407F501048104E3FF02240424E65F060
:10551000942008280830103021D24E0A800600025C
:10552000210021062FB83220AB20A53EAFA42124B4
:10553000212421A423242D24214421442184210435
:105540002080211023F83088A880AFFEA1202210EF
:10555000248C3B262C402188263020C027002000A8
:105560001020103010201420152659245124912485
:105570001124292425242524412441FC81040004EC
:105580000820FFFE08200A20030006800C60101887
:10559000EFEE0820082008A00848080807F00000DF
:1055A000082010203C50248835062E0424F8FC885E
:1055B000248834882CB8249024844484547C880023
:1055C0000100010002800440083010182FEE48242A
:1055D00008200820082008E008400808080C07F800
:1055E0002040104010A0011082084C0E4BF4121005
:1055F00012102210E250222022002204220421FC58
:105600000440FFFE045004281FFE502057A8752CAC
:1056100017A874A85790551097AA204A20844000D4
:1056200021F8210821F8F80023BC22A42AA433BCC5
:105630006040A7FE206020D02148224EAC4440406C
:1056400010101090949054FC5890FD1031FE3600CC
:105650005AFC5684528492FC1200150018FE100069
:10566000105013FE1050FBFE12523BFE365253FEFA
:10567000500091FC110411FC1104110411FC1104DF
:105680000240FFFE02403FFC22443FFC22443FFC1C
:1056900000001FF810081FF810081FF8100800007D
:1056A00004400440FFFE044004401FF010101FF0AF
:1056B00010101FF00100FFFE0100010001000100B9
:1056C00000003FFE20042F8428942A942A942A94D0
:1056D0002A942A942A944204450488D4908800008D
:1056E000204020403EFE491085087FFC01003FF825
:1056F0002108210823A8255009203118C10E0104D2
:1057000010041FC41444245435546554A55425541E
:10571000255425542294224424642854300800003F
:105720003C7824482448244824482448FFFE244840
:105730002448244824482488448855288A10000096
:10574000400227C2244284524552555215522552D6
:1057500025522552C552410242824242444A4804DF
:1057600000003FFC200420043FFC200027F820001C
:1057700020003FFE2200221024084FFC4008800039
:105780000108788C48504BFE4B2A7AAE127253FEB9
:105790005C0051FC510451FC5D04E10401FC010476
:1057A000101C13E01020FC2013FE102014A01B2E50
:1057B0003222D22213AE1222122213FE52022000F3
:1057C00000001FF808100A10091005A00520044069
:1057D00002400180018002400C30300EC004000005
:1057E00004400440FFFE0440024002007FFE04002B
:1057F0000840104037FC50401040104017FE100089
:10580000042004207FFE0420052002800460191873
:105810002FF6C10009400D2011102118451002007B
:105820000100010001007FFE05400930310EDFF468
:1058300010101FF0101010101FF000007FFE00006D
:1058400000200020FDFE207020A8212E42247CF89C
:105850006488A4F8248824883CF8240023FE0000EF
:105860002110211027FEF910204020A029103248D5
:105870006C46A3F820402250224C2444A140408092
:10588000020001007FFE48049EF822905460A82088
:1058900017D8200EDFF40140112021184510020016
:1058A00004000640042008101FEE62240220042099
:1058B00008A011402108210821083FF82008000015
:1058C0000820063004407FFC01003FF80200FFFE84
:1058D000040008000FF81080208040809FFE000028
:1058E00000802060180013FE04040038F3C010404C
:1058F000105E17E01040144218421042003C0000B5
:10590000101C11E01100FD00110015FE19103110DE
:10591000D130111811161212121014105810201034
:1059200008400840284C2F7028402F42F842413E42
:105930000100FFFE038005400930310EC104010063
:1059400006083808D0084A082BFE141868180828DA
:105950001428E4480C883508C408040828281010C6
:10596000110011F01220FFF81248124813F818A283
:1059700030A2D31E1C401030119010605030201007
:1059800010401040109011F8FE48108017FE1910BA
:10599000364ED884132010C8131010605180260092
:1059A000110810CC10507DFC552455FC55247D2445
:1059B00051FC182014201FFEF4204020002000205D
:1059C0002080208021F83D1047FC4924A12421FC9F
:1059D00020522092234E203028903040203000105A
:1059E000410021F8321027FC0A440244F3FC20A0B5
:1059F0002122223E24C02020298030602010000077
:105A00002040202023FE42004AFCFAA412FC22A4DB
:105A10007AA402FC022035FCC420082013FE0000FA
:105A2000204020203BFE210840887890A3FE2200E1
:105A3000FA002200220022002A003400240008007C
:105A4000010000807FFE0810062024443FFE200055
:105A500020002000200020004000400080000000C6
:105A600010000BFC4004444442844FE449244FE4BA
:105A700049244FE441045FF44104410441144008C7
:105A80001000087EFF1000207F7E55425D5241527B
:105A90007F5222523E5222103E280026FF42000032
:105AA00000001FF010101FF0101010101FF0000069
:105AB0003FF820083FF8200820083FF820080000A1
:105AC000480029FC110431FC4904890419FC280010
:105AD0004BFE8A020BFE0A020A0213FE520220004B
